0035029070999991902010106004+64333+023450FM-12+000599999V0201401N011819999999N0000001N9-00941+99999100551ADDGF104991999999999999999999MW1381
0035029070999991902010113004+64333+023450FM-12+000599999V0201401N011819999999N0000001N9-01001+99999100311ADDGF104991999999999999999999MW1381
0035029070999991902010120004+64333+023450FM-12+000599999V0201401N013919999999N0000001N9-01171+99999100121ADDGF108991999999999999999999MW1381
0035029070999991902010206004+64333+023450FM-12+000599999V0200901N009819999999N0000001N9-01611+99999100121ADDGF108991999999999999999999MW1381
0029029070999991902010213004+64333+023450FM-12+000599999V0200901N011819999999N0000001N9-01721+99999100121ADDGF108991999999999999999999
0029029070999991902010220004+64333+023450FM-12+000599999V0200901N009819999999N0000001N9-01781+99999100421ADDGF108991999999999999999999
0029029070999991902010306004+64333+023450FM-12+000599999V0209991C000019999999N0000001N9-01781+99999100871ADDGF108991999999999999999999
0035029070999991902010313004+64333+023450FM-12+000599999V0209991C000019999999N0000001N9-01721+99999100901ADDGF108991999999999999999999MW1721
0029029070999991902010320004+64333+023450FM-12+000599999V0202001N004119999999N0000001N9-01501+99999100921ADDGF108991999999999999999999
0035029070999991902010406004+64333+023450FM-12+000599999V0201601N020119999999N0000001N9-01061+99999099141ADDGF108991999999999999999999MW1721
0035029070999991902010413004+64333+023450FM-12+000599999V0201601N015919999999N0000001N9-00941+99999098181ADDGF108991999999999999999999MW1721
0029029070999991902010420004+64333+023450FM-12+000599999V0201601N013919999999N0000001N9-01001+99999097991ADDGF108991999999999999999999
0029029070999991902010506004+64333+023450FM-12+000599999V0201101N006219999999N0000001N9-00721+99999097511ADDGF108991999999999999999999
0029029070999991902010513004+64333+023450FM-12+000599999V0200901N004119999999N0000001N9-00611+99999097721ADDGF108991999999999999999999
0035029070999991902010520004+64333+023450FM-12+000599999V0203601N013919999999N0000001N9-00941+99999098521ADDGF108991999999999999999999MW1721
0029029070999991902010606004+64333+023450FM-12+000599999V0202501N002119999999N0000001N9-01171+99999098921ADDGF101991999999999999999999
0029029070999991902010613004+64333+023450FM-12+000599999V0201801N002119999999N0000001N9-01281+99999099071ADDGF103991999999999999999999
0029029070999991902010620004+64333+023450FM-12+000599999V0201801N002119999999N0000001N9-01281+99999099831ADDGF100991999999999999999999
0035029070999991902010706004+64333+023450FM-12+000599999V0202001N027819999999N0000001N9-01441+99999099681ADDGF108991999999999999999999MW1721
0035029070999991902010713004+64333+023450FM-12+000599999V0202301N027819999999N0000001N9-00441+99999098621ADDGF108991999999999999999999MW1721
0029029070999991902010720004+64333+023450FM-12+000599999V0202501N027819999999N0000001N9-00111+99999098351ADDGF102991999999999999999999
0029029070999991902010806004+64333+023450FM-12+000599999V0202501N015919999999N0000001N9-00331+99999099141ADDGF100991999999999999999999
0029029070999991902010813004+64333+023450FM-12+000599999V0202501N013919999999N0000001N9-00171+99999098921ADDGF108991999999999999999999
0029029070999991902010820004+64333+023450FM-12+000599999V0202701N015919999999N0000001N9-00171+99999098901ADDGF100991999999999999999999
0029029070999991902010906004+64333+023450FM-12+000599999V0202701N015919999999N0000001N9-00611+99999099461ADDGF100991999999999999999999
0029029070999991902010913004+64333+023450FM-12+000599999V0202701N011819999999N0000001N9-00721+99999099701ADDGF101991999999999999999999
0029029070999991902010920004+64333+023450FM-12+000599999V0209991C000019999999N0000001N9-00891+99999099721ADDGF100991999999999999999999
0029029070999991902011006004+64333+023450FM-12+000599999V0200901N011819999999N0000001N9-00781+99999098231ADDGF108991999999999999999999
0035029070999991902011013004+64333+023450FM-12+000599999V0200901N011819999999N0000001N9-00671+99999097761ADDGF108991999999999999999999MW1381
0035029070999991902011020004+64333+023450FM-12+000599999V0200701N009819999999N0000001N9-00671+99999097741ADDGF108991999999999999999999MW1381
0029029070999991902011106004+64333+023450FM-12+000599999V0200201N011819999999N0000001N9-00891+99999098391ADDGF103991999999999999999999
0029029070999991902011113004+64333+023450FM-12+000599999V0200501N009819999999N0000001N9-01171+99999099061ADDGF100991999999999999999999
0029029070999991902011120004+64333+023450FM-12+000599999V0209991C000019999999N0000001N9-01221+99999099861ADDGF100991999999999999999999
0029029070999991902011206004+64333+023450FM-12+000599999V0202301N009819999999N0000001N9-01001+99999100241ADDGF108991999999999999999999
0029029070999991902011213004+64333+023450FM-12+000599999V0202301N009819999999N0000001N9-01171+99999100161ADDGF103991999999999999999999
0029029070999991902011220004+64333+023450FM-12+000599999V0202301N009819999999N0000001N9-01171+99999099911ADDGF102991999999999999999999
0029029070999991902011306004+64333+023450FM-12+000599999V0201801N009819999999N0000001N9-00781+99999099341ADDGF108991999999999999999999
0029029070999991902011313004+64333+023450FM-12+000599999V0201401N009819999999N0000001N9-00781+99999099321ADDGF108991999999999999999999
0029029070999991902011320004+64333+023450FM-12+000599999V0209991C000019999999N0000001N9-00891+99999099821ADDGF108991999999999999999999
0029029070999991902011406004+64333+023450FM-12+000599999V0203601N011819999999N0000001N9-01221+99999100821ADDGF104991999999999999999999
0029029070999991902011413004+64333+023450FM-12+000599999V0203401N009819999999N0000001N9-01391+99999101191ADDGF100991999999999999999999
0029029070999991902011420004+64333+023450FM-12+000599999V0203201N009819999999N0000001N9-01391+99999101631ADDGF100991999999999999999999
0029029070999991902011506004+64333+023450FM-12+000599999V0202301N011819999999N0000001N9-01441+99999101661ADDGF100991999999999999999999
0035029070999991902011513004+64333+023450FM-12+000599999V0202001N015919999999N0000001N9-01391+99999100801ADDGF108991999999999999999999MW1721
0035029070999991902011520004+64333+023450FM-12+000599999V0202301N027819999999N0000001N9-00781+99999098231ADDGF108991999999999999999999MW1721
0029029070999991902011606004+64333+023450FM-12+000599999V0202501N006219999999N0000001N9-00171+99999096581ADDGF100991999999999999999999
0035029070999991902011613004+64333+023450FM-12+000599999V0203201N013919999999N0000001N9-00111+99999097601ADDGF108991999999999999999999MW1721
0029029070999991902011620004+64333+023450FM-12+000599999V0203201N011819999999N0000001N9-00441+99999098551ADDGF100991999999999999999999
0029029070999991902011706004+64333+023450FM-12+000599999V0203201N009819999999N0000001N9-00441+99999099831ADDGF100991999999999999999999
0029029070999991902011713004+64333+023450FM-12+000599999V0203201N009819999999N0000001N9-00611+99999099921ADDGF100991999999999999999999
0029029070999991902011720004+64333+023450FM-12+000599999V0203201N008219999999N0000001N9-00831+99999100351ADDGF100991999999999999999999
0029029070999991902011806004+64333+023450FM-12+000599999V0203401N013919999999N0000001N9-01281+99999100961ADDGF100991999999999999999999
0029029070999991902011813004+64333+023450FM-12+000599999V0203401N011819999999N0000001N9-01281+99999101391ADDGF100991999999999999999999
0029029070999991902011820004+64333+023450FM-12+000599999V0203401N008219999999N0000001N9-01501+99999101861ADDGF100991999999999999999999
0029029070999991902011906004+64333+023450FM-12+000599999V0202301N009819999999N0000001N9-01831+99999101741ADDGF102991999999999999999999
0035029070999991902011913004+64333+023450FM-12+000599999V0202001N011819999999N0000001N9-01281+99999101511ADDGF104991999999999999999999MW1721
0035029070999991902011920004+64333+023450FM-12+000599999V0201801N015919999999N0000001N9-01061+99999100341ADDGF106991999999999999999999MW1721
0035029070999991902012006004+64333+023450FM-12+000599999V0201401N013919999999N0000001N9-01001+99999098841ADDGF108991999999999999999999MW1721
0035029070999991902012013004+64333+023450FM-12+000599999V0201401N011819999999N0000001N9-00941+99999097831ADDGF108991999999999999999999MW1721
0029029070999991902012020004+64333+023450FM-12+000599999V0201401N006219999999N0000001N9-01001+99999097481ADDGF108991999999999999999999
0029029070999991902012106004+64333+023450FM-12+000599999V0200201N011819999999N0000001N9-01221+99999098741ADDGF108991999999999999999999
0029029070999991902012113004+64333+023450FM-12+000599999V0203601N011819999999N0000001N9-01501+99999099471ADDGF104991999999999999999999
0029029070999991902012120004+64333+023450FM-12+000599999V0203401N013919999999N0000001N9-01391+99999100341ADDGF103991999999999999999999
0029029070999991902012206004+64333+023450FM-12+000599999V0209991C000019999999N0000001N9-01781+99999101421ADDGF100991999999999999999999
0029029070999991902012213004+64333+023450FM-12+000599999V0202001N002119999999N0000001N9-01501+99999101241ADDGF100991999999999999999999
0035029070999991902012220004+64333+023450FM-12+000599999V0202001N015919999999N0000001N9-01221+99999100361ADDGF108991999999999999999999MW1721
0029029070999991902012306004+64333+023450FM-12+000599999V0202501N008219999999N0000001N9-00391+99999100221ADDGF100991999999999999999999
0029029070999991902012313004+64333+023450FM-12+000599999V0202501N009819999999N0000001N9-00441+99999100231ADDGF103991999999999999999999
0029029070999991902012320004+64333+023450FM-12+000599999V0209991C000019999999N0000001N9-00221+99999099681ADDGF104991999999999999999999
0029029070999991902012406004+64333+023450FM-12+000599999V0209991C000019999999N0000001N9-00281+99999099591ADDGF108991999999999999999999
0029029070999991902012413004+64333+023450FM-12+000599999V0209991C000019999999N0000001N9-00331+99999099481ADDGF108991999999999999999999
0029029070999991902012420004+64333+023450FM-12+000599999V0209991C000019999999N0000001N9-00221+99999099321ADDGF108991999999999999999999
0029029070999991902012506004+64333+023450FM-12+000599999V0202001N006219999999N0000001N9+00111+99999098801ADDGF108991999999999999999999
0035029070999991902012513004+64333+023450FM-12+000599999V0202001N008219999999N0000001N9+00061+99999098741ADDGF108991999999999999999999MW1601
0035029070999991902012520004+64333+023450FM-12+000599999V0202001N011819999999N0000001N9+00111+99999098391ADDGF108991999999999999999999MW1601
0029029070999991902012606004+64333+023450FM-12+000599999V0201401N004119999999N0000001N9+00061+99999098321ADDGF108991999999999999999999
0029029070999991902012613004+64333+023450FM-12+000599999V0201601N006219999999N0000001N9+00111+99999098271ADDGF108991999999999999999999
0029029070999991902012620004+64333+023450FM-12+000599999V0201601N009819999999N0000001N9+00061+99999098121ADDGF108991999999999999999999
0029029070999991902012706004+64333+023450FM-12+000599999V0202001N009819999999N0000001N9-00061+99999098341ADDGF108991999999999999999999
0029029070999991902012713004+64333+023450FM-12+000599999V0202001N013919999999N0000001N9-00111+99999098391ADDGF108991999999999999999999
0029029070999991902012720004+64333+023450FM-12+000599999V0202301N004119999999N0000001N9-00221+99999098801ADDGF108991999999999999999999
0029029070999991902012806004+64333+023450FM-12+000599999V0201801N011819999999N0000001N9-00171+99999098551ADDGF108991999999999999999999
0029029070999991902012813004+64333+023450FM-12+000599999V0202501N009819999999N0000001N9-00391+99999098671ADDGF102991999999999999999999
0029029070999991902012820004+64333+023450FM-12+000599999V0202701N013919999999N0000001N9-00671+99999099191ADDGF100991999999999999999999
0029029070999991902012906004+64333+023450FM-12+000599999V0202501N009819999999N0000001N9-00721+99999099991ADDGF100991999999999999999999
0029029070999991902012913004+64333+023450FM-12+000599999V0202501N006219999999N0000001N9-00831+99999100701ADDGF100991999999999999999999
0029029070999991902012920004+64333+023450FM-12+000599999V0202701N004119999999N0000001N9-01281+99999101461ADDGF100991999999999999999999
0029029070999991902013006004+64333+023450FM-12+000599999V0209991C000019999999N0000001N9-01281+99999102551ADDGF101991999999999999999999
0029029070999991902013013004+64333+023450FM-12+000599999V0209991C000019999999N0000001N9-01281+99999102801ADDGF100991999999999999999999
0029029070999991902013020004+64333+023450FM-12+000599999V0209991C000019999999N0000001N9-01061+99999103151ADDGF100991999999999999999999
0029029070999991902013106004+64333+023450FM-12+000599999V0209991C000019999999N0000001N9-01781+99999103841ADDGF100991999999999999999999
0029029070999991902013113004+64333+023450FM-12+000599999V0209991C000019999999N0000001N9-01281+99999104071ADDGF100991999999999999999999
0029029070999991902013120004+64333+023450FM-12+000599999V0209991C000019999999N0000001N9-01441+99999104001ADDGF100991999999999999999999
0029029070999991902020106004+64333+023450FM-12+000599999V0202701N009819999999N0000001N9-00061+99999103121ADDGF106991999999999999999999
0029029070999991902020113004+64333+023450FM-12+000599999V0202701N009819999999N0000001N9+00111+99999103061ADDGF108991999999999999999999
0029029070999991902020120004+64333+023450FM-12+000599999V0202701N013919999999N0000001N9+00221+99999102701ADDGF100991999999999999999999
0029029070999991902020206004+64333+023450FM-12+000599999V0202701N009819999999N0000001N9+00171+99999102231ADDGF100991999999999999999999
0029029070999991902020213004+64333+023450FM-12+000599999V0209991C000019999999N0000001N9+00061+99999102221ADDGF104991999999999999999999
0029029070999991902020220004+64333+023450FM-12+000599999V0209991C000019999999N0000001N9+00061+99999101941ADDGF108991999999999999999999
0029029070999991902020306004+64333+023450FM-12+000599999V0203401N008219999999N0000001N9-00671+99999101471ADDGF100991999999999999999999
0029029070999991902020313004+64333+023450FM-12+000599999V0203201N004119999999N0000001N9-00781+99999101461ADDGF100991999999999999999999
0029029070999991902020320004+64333+023450FM-12+000599999V0203201N009819999999N0000001N9-00891+99999101181ADDGF100991999999999999999999
0029029070999991902020406004+64333+023450FM-12+000599999V0203601N009819999999N0000001N9-01391+99999100761ADDGF100991999999999999999999
0029029070999991902020413004+64333+023450FM-12+000599999V0203601N011819999999N0000001N9-01441+99999100921ADDGF100991999999999999999999
0029029070999991902020420004+64333+023450FM-12+000599999V0203601N013919999999N0000001N9-01611+99999100921ADDGF100991999999999999999999
0029029070999991902020506004+64333+023450FM-12+000599999V0200901N004119999999N0000001N9-01781+99999100821ADDGF100991999999999999999999
0029029070999991902020513004+64333+023450FM-12+000599999V0202701N006219999999N0000001N9-01611+99999100941ADDGF100991999999999999999999
0029029070999991902020520004+64333+023450FM-12+000599999V0201801N008219999999N0000001N9-01781+99999100921ADDGF100991999999999999999999
0029029070999991902020606004+64333+023450FM-12+000599999V0202001N006219999999N0000001N9-01611+99999100991ADDGF106991999999999999999999
0029029070999991902020613004+64333+023450FM-12+000599999V0201401N006219999999N0000001N9-01111+99999100921ADDGF106991999999999999999999
0029029070999991902020620004+64333+023450FM-12+000599999V0201401N006219999999N0000001N9-00941+99999100661ADDGF108991999999999999999999
0035029070999991902020706004+64333+023450FM-12+000599999V0201401N008219999999N0000001N9-01111+99999099721ADDGF108991999999999999999999MW1701
0035029070999991902020713004+64333+023450FM-12+000599999V0201401N009819999999N0000001N9-01111+99999099381ADDGF108991999999999999999999MW1701
0035029070999991902020720004+64333+023450FM-12+000599999V0201401N008219999999N0000001N9-01281+99999099191ADDGF108991999999999999999999MW1701
0035029070999991902020806004+64333+023450FM-12+000599999V0203201N006219999999N0000001N9-01671+99999098921ADDGF108991999999999999999999MW1701
0035029070999991902020813004+64333+023450FM-12+000599999V0203201N008219999999N0000001N9-01561+99999098911ADDGF108991999999999999999999MW1701
0035029070999991902020820004+64333+023450FM-12+000599999V0202901N006219999999N0000001N9-01721+99999099111ADDGF108991999999999999999999MW1701
0029029070999991902020906004+64333+023450FM-12+000599999V0203601N002119999999N0000001N9-01671+99999099381ADDGF108991999999999999999999
0029029070999991902020913004+64333+023450FM-12+000599999V0203601N008219999999N0000001N9-01611+99999099301ADDGF108991999999999999999999
0029029070999991902020920004+64333+023450FM-12+000599999V0203601N009819999999N0000001N9-01941+99999099201ADDGF108991999999999999999999
0029029070999991902021006004+64333+023450FM-12+000599999V0202701N006219999999N0000001N9-02111+99999099481ADDGF104991999999999999999999
0029029070999991902021013004+64333+023450FM-12+000599999V0202701N004119999999N0000001N9-01891+99999099621ADDGF105991999999999999999999
0029029070999991902021020004+64333+023450FM-12+000599999V0202701N004119999999N0000001N9-01831+99999099941ADDGF108991999999999999999999
0029029070999991902021106004+64333+023450FM-12+000599999V0209991C000019999999N0000001N9-02611+99999100221ADDGF100991999999999999999999
0029029070999991902021113004+64333+023450FM-12+000599999V0209991C000019999999N0000001N9-02281+99999100231ADDGF100991999999999999999999
0029029070999991902021120004+64333+023450FM-12+000599999V0209991C000019999999N0000001N9-02171+99999100281ADDGF100991999999999999999999
0029029070999991902021206004+64333+023450FM-12+000599999V0201401N006219999999N0000001N9-01561+99999099791ADDGF108991999999999999999999
0029029070999991902021213004+64333+023450FM-12+000599999V0201101N004119999999N0000001N9-01171+99999099481ADDGF104991999999999999999999
0035029070999991902021220004+64333+023450FM-12+000599999V0201101N009819999999N0000001N9-00831+99999099421ADDGF108991999999999999999999MW1721
0029029070999991902021306004+64333+023450FM-12+000599999V0202501N006219999999N0000001N9-01111+99999099621ADDGF100991999999999999999999
0029029070999991902021313004+64333+023450FM-12+000599999V0202301N008219999999N0000001N9-01391+99999099671ADDGF100991999999999999999999
0029029070999991902021320004+64333+023450FM-12+000599999V0209991C000019999999N0000001N9-01781+99999099741ADDGF100991999999999999999999
0029029070999991902021406004+64333+023450FM-12+000599999V0202301N008219999999N0000001N9-01611+99999099941ADDGF100991999999999999999999
0029029070999991902021413004+64333+023450FM-12+000599999V0202301N009819999999N0000001N9-01171+99999100101ADDGF100991999999999999999999
0029029070999991902021420004+64333+023450FM-12+000599999V0202501N009819999999N0000001N9-01001+99999100201ADDGF100991999999999999999999
0029029070999991902021506004+64333+023450FM-12+000599999V0202301N006219999999N0000001N9-01501+99999100681ADDGF100991999999999999999999
0029029070999991902021513004+64333+023450FM-12+000599999V0202301N006219999999N0000001N9-01281+99999100861ADDGF100991999999999999999999
0029029070999991902021520004+64333+023450FM-12+000599999V0209991C000019999999N0000001N9-01331+99999100671ADDGF100991999999999999999999
0029029070999991902021606004+64333+023450FM-12+000599999V0202301N011819999999N0000001N9-00561+99999100021ADDGF108991999999999999999999
0029029070999991902021613004+64333+023450FM-12+000599999V0202301N015919999999N0000001N9+00001+99999099661ADDGF108991999999999999999999
0029029070999991902021620004+64333+023450FM-12+000599999V0202301N011819999999N0000001N9-00171+99999099081ADDGF108991999999999999999999
0029029070999991902021706004+64333+023450FM-12+000599999V0203401N011819999999N0000001N9-00331+99999099821ADDGF100991999999999999999999
0029029070999991902021713004+64333+023450FM-12+000599999V0203401N009819999999N0000001N9-00891+99999101861ADDGF100991999999999999999999
0029029070999991902021720004+64333+023450FM-12+000599999V0209991C000019999999N0000001N9-01221+99999102801ADDGF100991999999999999999999
0029029070999991902021806004+64333+023450FM-12+000599999V0202301N004119999999N0000001N9-01111+99999103221ADDGF108991999999999999999999
0029029070999991902021813004+64333+023450FM-12+000599999V0202301N004119999999N0000001N9-00831+99999103101ADDGF108991999999999999999999
0029029070999991902021820004+64333+023450FM-12+000599999V0209991C000019999999N0000001N9-00501+99999103031ADDGF108991999999999999999999
0029029070999991902021906004+64333+023450FM-12+000599999V0209991C000019999999N0000001N9-00561+99999103121ADDGF108991999999999999999999
0029029070999991902021913004+64333+023450FM-12+000599999V0209991C000019999999N0000001N9-00501+99999103321ADDGF108991999999999999999999
0029029070999991902021920004+64333+023450FM-12+000599999V0202301N011819999999N0000001N9-00671+99999103281ADDGF108991999999999999999999
0029029070999991902022006004+64333+023450FM-12+000599999V0202301N013919999999N0000001N9-00611+99999102441ADDGF108991999999999999999999
0029029070999991902022013004+64333+023450FM-12+000599999V0202301N015919999999N0000001N9-00331+99999102121ADDGF108991999999999999999999
0029029070999991902022020004+64333+023450FM-12+000599999V0202501N011819999999N0000001N9-00501+99999101911ADDGF104991999999999999999999
0029029070999991902022106004+64333+023450FM-12+000599999V0202301N009819999999N0000001N9-00281+99999101461ADDGF100991999999999999999999
0029029070999991902022113004+64333+023450FM-12+000599999V0202301N009819999999N0000001N9-00061+99999101401ADDGF100991999999999999999999
0029029070999991902022120004+64333+023450FM-12+000599999V0202301N009819999999N0000001N9-00281+99999101071ADDGF108991999999999999999999
0029029070999991902022206004+64333+023450FM-12+000599999V0202301N009819999999N0000001N9-00391+99999100551ADDGF108991999999999999999999
0029029070999991902022213004+64333+023450FM-12+000599999V0202301N009819999999N0000001N9-00111+99999100741ADDGF104991999999999999999999
0035029070999991902022220004+64333+023450FM-12+000599999V0203601N004119999999N0000001N9-00281+99999101001ADDGF105991999999999999999999MW1381
0029029070999991902022306004+64333+023450FM-12+000599999V0209991C000019999999N0000001N9-00671+99999102061ADDGF108991999999999999999999
0029029070999991902022313004+64333+023450FM-12+000599999V0209991C000019999999N0000001N9-00561+99999102191ADDGF108991999999999999999999
0035029070999991902022320004+64333+023450FM-12+000599999V0201401N004119999999N0000001N9-00671+99999102041ADDGF108991999999999999999999MW1701
0029029070999991902022406004+64333+023450FM-12+000599999V0202301N009819999999N0000001N9-00281+99999101751ADDGF108991999999999999999999
0029029070999991902022413004+64333+023450FM-12+000599999V0202301N011819999999N0000001N9-00221+99999101541ADDGF108991999999999999999999
0029029070999991902022420004+64333+023450FM-12+000599999V0202301N011819999999N0000001N9-00281+99999101341ADDGF108991999999999999999999
0029029070999991902022506004+64333+023450FM-12+000599999V0202301N006219999999N0000001N9-00501+99999101521ADDGF108991999999999999999999
0029029070999991902022513004+64333+023450FM-12+000599999V0202301N008219999999N0000001N9-00281+99999101541ADDGF108991999999999999999999
0029029070999991902022520004+64333+023450FM-12+000599999V0202301N009819999999N0000001N9-00281+99999101561ADDGF108991999999999999999999
0029029070999991902022606004+64333+023450FM-12+000599999V0202301N004119999999N0000001N9-00171+99999102021ADDGF108991999999999999999999
0029029070999991902022613004+64333+023450FM-12+000599999V0209991C000019999999N0000001N9-00061+99999102161ADDGF108991999999999999999999
0029029070999991902022620004+64333+023450FM-12+000599999V0209991C000019999999N0000001N9-00171+99999102221ADDGF108991999999999999999999
0029029070999991902022706004+64333+023450FM-12+000599999V0209991C000019999999N0000001N9-00781+99999102121ADDGF108991999999999999999999
0029029070999991902022713004+64333+023450FM-12+000599999V0201401N004119999999N0000001N9-00441+99999101941ADDGF108991999999999999999999
0029029070999991902022720004+64333+023450FM-12+000599999V0209991C000019999999N0000001N9-00501+99999101721ADDGF108991999999999999999999
0035029070999991902022806004+64333+023450FM-12+000599999V0201601N006219999999N0000001N9-00441+99999101281ADDGF108991999999999999999999MW1721
0029029070999991902022813004+64333+023450FM-12+000599999V0201801N004119999999N0000001N9-00221+99999101261ADDGF108991999999999999999999
0029029070999991902022820004+64333+023450FM-12+000599999V0209991C000019999999N0000001N9-00281+99999101261ADDGF108991999999999999999999
0035029070999991902030106004+64333+023450FM-12+000599999V0209991C000019999999N0000001N9-00501+99999101271ADDGF108991999999999999999999MW1721
0029029070999991902030113004+64333+023450FM-12+000599999V0209991C000019999999N0000001N9-00941+99999101271ADDGF104991999999999999999999
0029029070999991902030120004+64333+023450FM-12+000599999V0209991C000019999999N0000001N9-00671+99999101461ADDGF108991999999999999999999
0029029070999991902030206004+64333+023450FM-12+000599999V0203601N004119999999N0000001N9-01171+99999101671ADDGF108991999999999999999999
0029029070999991902030213004+64333+023450FM-12+000599999V0203601N002119999999N0000001N9-00671+99999101821ADDGF108991999999999999999999
0029029070999991902030220004+64333+023450FM-12+000599999V0209991C000019999999N0000001N9-00831+99999101961ADDGF108991999999999999999999
0029029070999991902030306004+64333+023450FM-12+000599999V0203601N002119999999N0000001N9-00611+99999102281ADDGF106991999999999999999999
0029029070999991902030313004+64333+023450FM-12+000599999V0203601N004119999999N0000001N9-00561+99999102241ADDGF108991999999999999999999
0029029070999991902030320004+64333+023450FM-12+000599999V0203401N004119999999N0000001N9-00941+99999102261ADDGF108991999999999999999999
0029029070999991902030406004+64333+023450FM-12+000599999V0209991C000019999999N0000001N9-01281+99999102591ADDGF108991999999999999999999
0029029070999991902030413004+64333+023450FM-12+000599999V0209991C000019999999N0000001N9-00721+99999102621ADDGF102991999999999999999999
0029029070999991902030420004+64333+023450FM-12+000599999V0209991C000019999999N0000001N9-01441+99999102701ADDGF100991999999999999999999
0029029070999991902030506004+64333+023450FM-12+000599999V0201801N006219999999N0000001N9-00941+99999102181ADDGF108991999999999999999999
0029029070999991902030513004+64333+023450FM-12+000599999V0201801N006219999999N0000001N9-00671+99999101991ADDGF108991999999999999999999
0029029070999991902030520004+64333+023450FM-12+000599999V0202001N011819999999N0000001N9-00671+99999101221ADDGF108991999999999999999999
0029029070999991902030606004+64333+023450FM-12+000599999V0201601N004119999999N0000001N9-00441+99999100221ADDGF108991999999999999999999
0029029070999991902030613004+64333+023450FM-12+000599999V0200701N004119999999N0000001N9-00331+99999100071ADDGF108991999999999999999999
0029029070999991902030620004+64333+023450FM-12+000599999V0200701N002119999999N0000001N9-00441+99999100061ADDGF108991999999999999999999
0029029070999991902030706004+64333+023450FM-12+000599999V0200901N011819999999N0000001N9-00831+99999100151ADDGF108991999999999999999999
0035029070999991902030713004+64333+023450FM-12+000599999V0200901N011819999999N0000001N9-00721+99999100321ADDGF108991999999999999999999MW1721
0035029070999991902030720004+64333+023450FM-12+000599999V0200501N013919999999N0000001N9-01001+99999100661ADDGF108991999999999999999999MW1721
0029029070999991902030806004+64333+023450FM-12+000599999V0200501N008219999999N0000001N9-02111+99999100951ADDGF108991999999999999999999
0029029070999991902030813004+64333+023450FM-12+000599999V0200501N006219999999N0000001N9-01501+99999100821ADDGF100991999999999999999999
0035029070999991902030820004+64333+023450FM-12+000599999V0209991C000019999999N0000001N9-01891+99999100761ADDGF100991999999999999999999MW1001
0029029070999991902030906004+64333+023450FM-12+000599999V0200901N004119999999N0000001N9-02221+99999100481ADDGF100991999999999999999999
0029029070999991902030913004+64333+023450FM-12+000599999V0203601N006219999999N0000001N9-01781+99999100391ADDGF100991999999999999999999
0029029070999991902030920004+64333+023450FM-12+000599999V0209991C000019999999N0000001N9-02281+99999100181ADDGF100991999999999999999999
0029029070999991902031006004+64333+023450FM-12+000599999V0209991C000019999999N0000001N9-02061+99999099721ADDGF106991999999999999999999
0029029070999991902031013004+64333+023450FM-12+000599999V0209991C000019999999N0000001N9-01281+99999099991ADDGF104991999999999999999999
0029029070999991902031020004+64333+023450FM-12+000599999V0209991C000019999999N0000001N9-01441+99999100201ADDGF101991999999999999999999
0029029070999991902031106004+64333+023450FM-12+000599999V0200201N002119999999N0000001N9-01831+99999101311ADDGF100991999999999999999999
0029029070999991902031113004+64333+023450FM-12+000599999V0203601N002119999999N0000001N9-01611+99999101321ADDGF100991999999999999999999
0029029070999991902031120004+64333+023450FM-12+000599999V0209991C000019999999N0000001N9-01941+99999101631ADDGF100991999999999999999999
0029029070999991902031206004+64333+023450FM-12+000599999V0209991C000019999999N0000001N9-02171+99999101871ADDGF100991999999999999999999
0029029070999991902031213004+64333+023450FM-12+000599999V0202301N009819999999N0000001N9-01221+99999101541ADDGF104991999999999999999999
0029029070999991902031220004+64333+023450FM-12+000599999V0202301N013919999999N0000001N9-01001+99999101151ADDGF104991999999999999999999
0029029070999991902031306004+64333+023450FM-12+000599999V0200701N004119999999N0000001N9-01441+99999101751ADDGF104991999999999999999999
0029029070999991902031313004+64333+023450FM-12+000599999V0202301N009819999999N0000001N9-00831+99999101521ADDGF104991999999999999999999
0029029070999991902031320004+64333+023450FM-12+000599999V0202301N011819999999N0000001N9-00891+99999101241ADDGF100991999999999999999999
0029029070999991902031406004+64333+023450FM-12+000599999V0202301N009819999999N0000001N9-00831+99999100481ADDGF104991999999999999999999
0029029070999991902031413004+64333+023450FM-12+000599999V0202301N011819999999N0000001N9-00111+99999100261ADDGF105991999999999999999999
0029029070999991902031420004+64333+023450FM-12+000599999V0202301N013919999999N0000001N9-00221+99999099921ADDGF100991999999999999999999
0029029070999991902031506004+64333+023450FM-12+000599999V0202301N006219999999N0000001N9-00441+99999099661ADDGF102991999999999999999999
0029029070999991902031513004+64333+023450FM-12+000599999V0202301N008219999999N0000001N9-00061+99999099591ADDGF101991999999999999999999
0029029070999991902031520004+64333+023450FM-12+000599999V0202301N008219999999N0000001N9-00331+99999099581ADDGF100991999999999999999999
0029029070999991902031606004+64333+023450FM-12+000599999V0202301N002119999999N0000001N9-00671+99999099621ADDGF103991999999999999999999
0029029070999991902031613004+64333+023450FM-12+000599999V0202301N002119999999N0000001N9-00171+99999099601ADDGF104991999999999999999999
0029029070999991902031620004+64333+023450FM-12+000599999V0202301N006219999999N0000001N9-00391+99999099671ADDGF104991999999999999999999
0029029070999991902031706004+64333+023450FM-12+000599999V0202701N008219999999N0000001N9-00941+99999099661ADDGF100991999999999999999999
0029029070999991902031713004+64333+023450FM-12+000599999V0203201N008219999999N0000001N9-00221+99999099801ADDGF106991999999999999999999
0035029070999991902031720004+64333+023450FM-12+000599999V0203601N013919999999N0000001N9-00331+99999999999ADDGF108991999999999999999999MW1701
0029029070999991902031806004+64333+023450FM-12+000599999V0200501N008219999999N0000001N9-01501+99999100901ADDGF100991999999999999999999
0029029070999991902031813004+64333+023450FM-12+000599999V0203601N008219999999N0000001N9-01171+99999101071ADDGF100991999999999999999999
0029029070999991902031820004+64333+023450FM-12+000599999V0209991C000019999999N0000001N9-01611+99999101001ADDGF100991999999999999999999
0029029070999991902031906004+64333+023450FM-12+000599999V0200901N011819999999N0000001N9-01171+99999099871ADDGF108991999999999999999999
0035029070999991902031913004+64333+023450FM-12+000599999V0200901N013919999999N0000001N9-01061+99999099271ADDGF108991999999999999999999MW1721
0029029070999991902031920004+64333+023450FM-12+000599999V0200901N011819999999N0000001N9-01331+99999099061ADDGF108991999999999999999999
0029029070999991902032006004+64333+023450FM-12+000599999V0200201N009819999999N0000001N9-01831+99999100021ADDGF100991999999999999999999
0029029070999991902032013004+64333+023450FM-12+000599999V0200201N013919999999N0000001N9-01781+99999100101ADDGF100991999999999999999999
0029029070999991902032020004+64333+023450FM-12+000599999V0200501N015919999999N0000001N9-01941+99999999999ADDGF100991999999999999999999
0035029070999991902032106004+64333+023450FM-12+000599999V0200501N013919999999N0000001N9-02331+99999100061ADDGF104991999999999999999999MW1381
0035029070999991902032113004+64333+023450FM-12+000599999V0200501N011819999999N0000001N9-01941+99999100121ADDGF104991999999999999999999MW1381
0029029070999991902032120004+64333+023450FM-12+000599999V0200901N008219999999N0000001N9-01721+99999100321ADDGF108991999999999999999999
0035029070999991902032206004+64333+023450FM-12+000599999V0200901N008219999999N0000001N9-01781+99999100501ADDGF104991999999999999999999MW1721
0035029070999991902032213004+64333+023450FM-12+000599999V0200901N006219999999N0000001N9-01331+99999100671ADDGF104991999999999999999999MW1721
0029029070999991902032220004+64333+023450FM-12+000599999V0200901N004119999999N0000001N9-01221+99999100521ADDGF108991999999999999999999
0035029070999991902032306004+64333+023450FM-12+000599999V0200901N002119999999N0000001N9-01001+99999101021ADDGF108991999999999999999999MW1721
0029029070999991902032313004+64333+023450FM-12+000599999V0209991C000019999999N0000001N9-00611+99999101061ADDGF108991999999999999999999
0029029070999991902032320004+64333+023450FM-12+000599999V0209991C000019999999N0000001N9-01001+99999101301ADDGF108991999999999999999999
0029029070999991902032406004+64333+023450FM-12+000599999V0200501N011819999999N0000001N9-01001+99999101481ADDGF108991999999999999999999
0035029070999991902032413004+64333+023450FM-12+000599999V0200501N013919999999N0000001N9-00611+99999101271ADDGF108991999999999999999999MW1381
0035029070999991902032420004+64333+023450FM-12+000599999V0200901N004119999999N0000001N9-00221+99999101071ADDGF108991999999999999999999MW1381
0035029070999991902032506004+64333+023450FM-12+000599999V0209991C000019999999N0000001N9+00171+99999100661ADDGF108991999999999999999999MW1721
0035029070999991902032513004+64333+023450FM-12+000599999V0209991C000019999999N0000001N9+00281+99999100261ADDGF108991999999999999999999MW1621
0035029070999991902032520004+64333+023450FM-12+000599999V0209991C000019999999N0000001N9+00171+99999100201ADDGF108991999999999999999999MW1621
0029029070999991902032606004+64333+023450FM-12+000599999V0209991C000019999999N0000001N9+00111+99999099911ADDGF108991999999999999999999
0029029070999991902032613004+64333+023450FM-12+000599999V0209991C000019999999N0000001N9+00061+99999099951ADDGF108991999999999999999999
0029029070999991902032620004+64333+023450FM-12+000599999V0209991C000019999999N0000001N9-00111+99999100121ADDGF108991999999999999999999
0029029070999991902032706004+64333+023450FM-12+000599999V0203601N011819999999N0000001N9-00611+99999100341ADDGF106991999999999999999999
0029029070999991902032713004+64333+023450FM-12+000599999V0203601N013919999999N0000001N9-00331+99999100321ADDGF108991999999999999999999
0035029070999991902032720004+64333+023450FM-12+000599999V0209991C000019999999N0000001N9-00391+99999100521ADDGF108991999999999999999999MW1761
0029029070999991902032806004+64333+023450FM-12+000599999V0203601N013919999999N0000001N9-00721+99999100911ADDGF104991999999999999999999
0029029070999991902032813004+64333+023450FM-12+000599999V0203601N011819999999N0000001N9-00501+99999101111ADDGF108991999999999999999999
0029029070999991902032820004+64333+023450FM-12+000599999V0209991C000019999999N0000001N9-00441+99999100941ADDGF108991999999999999999999
0029029070999991902032906004+64333+023450FM-12+000599999V0200901N002119999999N0000001N9-00441+99999100631ADDGF108991999999999999999999
0029029070999991902032913004+64333+023450FM-12+000599999V0200501N002119999999N0000001N9-00111+99999100121ADDGF108991999999999999999999
0029029070999991902032920004+64333+023450FM-12+000599999V0209991C000019999999N0000001N9-00281+99999099821ADDGF108991999999999999999999
0035029070999991902033006004+64333+023450FM-12+000599999V0202501N002119999999N0000001N9-00441+99999100141ADDGF108991999999999999999999MW1721
0029029070999991902033013004+64333+023450FM-12+000599999V0202301N006219999999N0000001N9-00441+99999100521ADDGF101991999999999999999999
0029029070999991902033020004+64333+023450FM-12+000599999V0209991C000019999999N0000001N9-01171+99999100671ADDGF100991999999999999999999
0029029070999991902033106004+64333+023450FM-12+000599999V0202301N002119999999N0000001N9-00831+99999100791ADDGF106991999999999999999999
0029029070999991902033113004+64333+023450FM-12+000599999V0209991C000019999999N0000001N9-00501+99999100921ADDGF100991999999999999999999
0029029070999991902033120004+64333+023450FM-12+000599999V0209991C000019999999N0000001N9-01171+99999100921ADDGF103991999999999999999999
0029029070999991902040106004+64333+023450FM-12+000599999V0203601N002119999999N0000001N9-01501+99999100921ADDGF100991999999999999999999
0029029070999991902040113004+64333+023450FM-12+000599999V0200201N004119999999N0000001N9-00781+99999100841ADDGF100991999999999999999999
0029029070999991902040120004+64333+023450FM-12+000599999V0200501N009819999999N0000001N9-01111+99999100471ADDGF102991999999999999999999
0029029070999991902040206004+64333+023450FM-12+000599999V0200501N008219999999N0000001N9-00561+99999100031ADDGF106991999999999999999999
0029029070999991902040213004+64333+023450FM-12+000599999V0200501N009819999999N0000001N9-00441+99999099991ADDGF108991999999999999999999
0035029070999991902040220004+64333+023450FM-12+000599999V0203601N008219999999N0000001N9-00501+99999999999ADDGF108991999999999999999999MW1721
0035029070999991902040306004+64333+023450FM-12+000599999V0203401N009819999999N0000001N9-00781+99999100201ADDGF103991999999999999999999MW1721
0029029070999991902040313004+64333+023450FM-12+000599999V0203201N002119999999N0000001N9-00721+99999100591ADDGF100991999999999999999999
0029029070999991902040320004+64333+023450FM-12+000599999V0209991C000019999999N0000001N9-01391+99999100711ADDGF100991999999999999999999
0029029070999991902040406004+64333+023450FM-12+000599999V0202001N002119999999N0000001N9-00501+99999100831ADDGF106991999999999999999999
0029029070999991902040413004+64333+023450FM-12+000599999V0202701N001019999999N0000001N9+00001+99999100991ADDGF104991999999999999999999
0029029070999991902040420004+64333+023450FM-12+000599999V0200201N002119999999N0000001N9-00721+99999101141ADDGF108991999999999999999999
0029029070999991902040506004+64333+023450FM-12+000599999V0200501N002119999999N0000001N9-01501+99999100951ADDGF100991999999999999999999
0029029070999991902040513004+64333+023450FM-12+000599999V0203601N002119999999N0000001N9-00781+99999101041ADDGF100991999999999999999999
0029029070999991902040520004+64333+023450FM-12+000599999V0202301N002119999999N0000001N9-01331+99999100801ADDGF100991999999999999999999
0029029070999991902040606004+64333+023450FM-12+000599999V0202701N006219999999N0000001N9-01221+99999100271ADDGF100991999999999999999999
0029029070999991902040613004+64333+023450FM-12+000599999V0203201N002119999999N0000001N9-00281+99999100341ADDGF100991999999999999999999
0029029070999991902040620004+64333+023450FM-12+000599999V0203201N004119999999N0000001N9-01061+99999100521ADDGF100991999999999999999999
0029029070999991902040706004+64333+023450FM-12+000599999V0203201N009819999999N0000001N9-01111+99999101081ADDGF100991999999999999999999
0029029070999991902040713004+64333+023450FM-12+000599999V0203201N009819999999N0000001N9-00611+99999101281ADDGF100991999999999999999999
0029029070999991902040720004+64333+023450FM-12+000599999V0203201N013919999999N0000001N9-01171+99999101471ADDGF100991999999999999999999
0029029070999991902040806004+64333+023450FM-12+000599999V0209991C000019999999N0000001N9-01721+99999101761ADDGF100991999999999999999999
0029029070999991902040813004+64333+023450FM-12+000599999V0209991C000019999999N0000001N9-00831+99999101881ADDGF100991999999999999999999
0029029070999991902040820004+64333+023450FM-12+000599999V0209991C000019999999N0000001N9-01441+99999101621ADDGF100991999999999999999999
0029029070999991902040906004+64333+023450FM-12+000599999V0203601N004119999999N0000001N9-01611+99999101801ADDGF100991999999999999999999
0029029070999991902040913004+64333+023450FM-12+000599999V0203601N008219999999N0000001N9-00611+99999102121ADDGF103991999999999999999999
0029029070999991902040920004+64333+023450FM-12+000599999V0203601N004119999999N0000001N9-00831+99999102461ADDGF104991999999999999999999
0029029070999991902041006004+64333+023450FM-12+000599999V0202301N008219999999N0000001N9-01561+99999102791ADDGF100991999999999999999999
0029029070999991902041013004+64333+023450FM-12+000599999V0202301N009819999999N0000001N9-00391+99999103001ADDGF100991999999999999999999
0029029070999991902041020004+64333+023450FM-12+000599999V0202301N009819999999N0000001N9-01001+99999102951ADDGF100991999999999999999999
0029029070999991902041106004+64333+023450FM-12+000599999V0202301N009819999999N0000001N9-01001+99999102991ADDGF100991999999999999999999
0029029070999991902041113004+64333+023450FM-12+000599999V0202301N009819999999N0000001N9-00111+99999102901ADDGF107991999999999999999999
0029029070999991902041120004+64333+023450FM-12+000599999V0202501N011819999999N0000001N9-00391+99999102761ADDGF101991999999999999999999
0029029070999991902041206004+64333+023450FM-12+000599999V0202501N002119999999N0000001N9-00671+99999102981ADDGF108991999999999999999999
0029029070999991902041213004+64333+023450FM-12+000599999V0202501N002119999999N0000001N9+00171+99999102941ADDGF104991999999999999999999
0029029070999991902041220004+64333+023450FM-12+000599999V0202501N002119999999N0000001N9-00331+99999102821ADDGF102991999999999999999999
0029029070999991902041306004+64333+023450FM-12+000599999V0200901N002119999999N0000001N9-00111+99999102991ADDGF108991999999999999999999
0029029070999991902041313004+64333+023450FM-12+000599999V0203601N002119999999N0000001N9+00281+99999103061ADDGF108991999999999999999999
0029029070999991902041320004+64333+023450FM-12+000599999V0209991C000019999999N0000001N9+00001+99999102921ADDGF104991999999999999999999
0029029070999991902041406004+64333+023450FM-12+000599999V0201401N002119999999N0000001N9+00111+99999103201ADDGF108991999999999999999999
0029029070999991902041413004+64333+023450FM-12+000599999V0202301N006219999999N0000001N9+00281+99999103191ADDGF104991999999999999999999
0029029070999991902041420004+64333+023450FM-12+000599999V0202301N002119999999N0000001N9-00281+99999103061ADDGF100991999999999999999999
0029029070999991902041506004+64333+023450FM-12+000599999V0202301N009819999999N0000001N9-00441+99999102951ADDGF100991999999999999999999
0029029070999991902041513004+64333+023450FM-12+000599999V0202301N013919999999N0000001N9+00221+99999102801ADDGF100991999999999999999999
0029029070999991902041520004+64333+023450FM-12+000599999V0202301N015919999999N0000001N9-00171+99999102681ADDGF101991999999999999999999
0029029070999991902041606004+64333+023450FM-12+000599999V0202301N013919999999N0000001N9-00331+99999102421ADDGF102991999999999999999999
0029029070999991902041613004+64333+023450FM-12+000599999V0202301N020119999999N0000001N9+00171+99999102261ADDGF102991999999999999999999
0029029070999991902041620004+64333+023450FM-12+000599999V0202301N020119999999N0000001N9+00061+99999101991ADDGF102991999999999999999999
0029029070999991902041706004+64333+023450FM-12+000599999V0202301N020119999999N0000001N9+00061+99999101861ADDGF103991999999999999999999
0029029070999991902041713004+64333+023450FM-12+000599999V0202301N020119999999N0000001N9+00221+99999101911ADDGF100991999999999999999999
0029029070999991902041720004+64333+023450FM-12+000599999V0202301N009819999999N0000001N9-00111+99999101981ADDGF100991999999999999999999
0029029070999991902041806004+64333+023450FM-12+000599999V0202301N009819999999N0000001N9-00171+99999101861ADDGF100991999999999999999999
0029029070999991902041813004+64333+023450FM-12+000599999V0202001N006219999999N0000001N9+00391+99999101841ADDGF100991999999999999999999
0029029070999991902041820004+64333+023450FM-12+000599999V0209991C000019999999N0000001N9-00061+99999101471ADDGF100991999999999999999999
0029029070999991902041906004+64333+023450FM-12+000599999V0201801N002119999999N0000001N9+00061+99999101481ADDGF103991999999999999999999
0029029070999991902041913004+64333+023450FM-12+000599999V0202701N002119999999N0000001N9+00391+99999101641ADDGF104991999999999999999999
0029029070999991902041920004+64333+023450FM-12+000599999V0202301N002119999999N0000001N9-00061+99999101801ADDGF104991999999999999999999
0029029070999991902042006004+64333+023450FM-12+000599999V0203601N002119999999N0000001N9+00171+99999102521ADDGF104991999999999999999999
0029029070999991902042013004+64333+023450FM-12+000599999V0203601N008219999999N0000001N9+00111+99999102871ADDGF100991999999999999999999
0029029070999991902042020004+64333+023450FM-12+000599999V0203601N004119999999N0000001N9-00061+99999103081ADDGF100991999999999999999999
0029029070999991902042106004+64333+023450FM-12+000599999V0203601N008219999999N0000001N9-00221+99999103461ADDGF104991999999999999999999
0029029070999991902042113004+64333+023450FM-12+000599999V0203601N009819999999N0000001N9-00281+99999103481ADDGF100991999999999999999999
0029029070999991902042120004+64333+023450FM-12+000599999V0203601N008219999999N0000001N9-00561+99999103351ADDGF100991999999999999999999
0029029070999991902042206004+64333+023450FM-12+000599999V0209991C000019999999N0000001N9-00221+99999103111ADDGF100991999999999999999999
0029029070999991902042213004+64333+023450FM-12+000599999V0209991C000019999999N0000001N9+00221+99999103111ADDGF100991999999999999999999
0029029070999991902042220004+64333+023450FM-12+000599999V0209991C000019999999N0000001N9-00671+99999102961ADDGF100991999999999999999999
0029029070999991902042306004+64333+023450FM-12+000599999V0202301N002119999999N0000001N9-00221+99999102671ADDGF103991999999999999999999
0029029070999991902042313004+64333+023450FM-12+000599999V0202301N008219999999N0000001N9+00171+99999102521ADDGF105991999999999999999999
0029029070999991902042320004+64333+023450FM-12+000599999V0202301N009819999999N0000001N9-00111+99999102201ADDGF106991999999999999999999
0029029070999991902042406004+64333+023450FM-12+000599999V0200201N002119999999N0000001N9-00111+99999102471ADDGF105991999999999999999999
0029029070999991902042413004+64333+023450FM-12+000599999V0203601N008219999999N0000001N9+00171+99999102431ADDGF102991999999999999999999
0029029070999991902042420004+64333+023450FM-12+000599999V0209991C000019999999N0000001N9-00331+99999102671ADDGF100991999999999999999999
0029029070999991902042506004+64333+023450FM-12+000599999V0200501N004119999999N0000001N9-00331+99999102861ADDGF102991999999999999999999
0029029070999991902042513004+64333+023450FM-12+000599999V0203601N006219999999N0000001N9+00001+99999102721ADDGF102991999999999999999999
0029029070999991902042520004+64333+023450FM-12+000599999V0209991C000019999999N0000001N9-00441+99999102391ADDGF100991999999999999999999
0035029070999991902042606004+64333+023450FM-12+000599999V0209991C000019999999N0000001N9-00171+99999102281ADDGF108991999999999999999999MW1721
0029029070999991902042613004+64333+023450FM-12+000599999V0200201N009819999999N0000001N9-00111+99999102591ADDGF100991999999999999999999
0029029070999991902042620004+64333+023450FM-12+000599999V0203601N006219999999N0000001N9-00671+99999102601ADDGF102991999999999999999999
0029029070999991902042706004+64333+023450FM-12+000599999V0200501N002119999999N0000001N9-01001+99999102871ADDGF100991999999999999999999
0029029070999991902042713004+64333+023450FM-12+000599999V0203601N006219999999N0000001N9-00561+99999102841ADDGF100991999999999999999999
0029029070999991902042720004+64333+023450FM-12+000599999V0203601N004119999999N0000001N9-01001+99999102601ADDGF100991999999999999999999
0029029070999991902042806004+64333+023450FM-12+000599999V0209991C000019999999N0000001N9-00941+99999102401ADDGF100991999999999999999999
0029029070999991902042813004+64333+023450FM-12+000599999V0209991C000019999999N0000001N9-00221+99999102221ADDGF100991999999999999999999
0029029070999991902042820004+64333+023450FM-12+000599999V0200501N004119999999N0000001N9-00721+99999102121ADDGF100991999999999999999999
0029029070999991902042906004+64333+023450FM-12+000599999V0209991C000019999999N0000001N9-00561+99999101871ADDGF103991999999999999999999
0029029070999991902042913004+64333+023450FM-12+000599999V0200501N006219999999N0000001N9-00061+99999101721ADDGF100991999999999999999999
0029029070999991902042920004+64333+023450FM-12+000599999V0200501N002119999999N0000001N9-00611+99999101471ADDGF100991999999999999999999
0029029070999991902043006004+64333+023450FM-12+000599999V0209991C000019999999N0000001N9-00721+99999101141ADDGF100991999999999999999999
0029029070999991902043013004+64333+023450FM-12+000599999V0209991C000019999999N0000001N9-00171+99999100941ADDGF100991999999999999999999
0029029070999991902043020004+64333+023450FM-12+000599999V0209991C000019999999N0000001N9-00561+99999100761ADDGF100991999999999999999999
0029029070999991902050106004+64333+023450FM-12+000599999V0203601N006219999999N0000001N9-00781+99999100381ADDGF100991999999999999999999
0029029070999991902050113004+64333+023450FM-12+000599999V0203401N008219999999N0000001N9-00221+99999100261ADDGF103991999999999999999999
0029029070999991902050120004+64333+023450FM-12+000599999V0209991C000019999999N0000001N9-00391+99999100141ADDGF106991999999999999999999
0029029070999991902050206004+64333+023450FM-12+000599999V0200901N002119999999N0000001N9-00171+99999100341ADDGF105991999999999999999999
0029029070999991902050213004+64333+023450FM-12+000599999V0200501N002119999999N0000001N9+00281+99999100521ADDGF103991999999999999999999
0029029070999991902050220004+64333+023450FM-12+000599999V0200201N008219999999N0000001N9-00281+99999100671ADDGF105991999999999999999999
0029029070999991902050306004+64333+023450FM-12+000599999V0200501N004119999999N0000001N9+00061+99999100751ADDGF106991999999999999999999
0029029070999991902050313004+64333+023450FM-12+000599999V0200501N008219999999N0000001N9+00221+99999100871ADDGF103991999999999999999999
0029029070999991902050320004+64333+023450FM-12+000599999V0200501N006219999999N0000001N9+00061+99999101021ADDGF108991999999999999999999
0029029070999991902050406004+64333+023450FM-12+000599999V0203601N006219999999N0000001N9+00111+99999101201ADDGF108991999999999999999999
0029029070999991902050413004+64333+023450FM-12+000599999V0203601N008219999999N0000001N9+00171+99999101311ADDGF102991999999999999999999
0029029070999991902050420004+64333+023450FM-12+000599999V0203601N008219999999N0000001N9+00001+99999101241ADDGF100991999999999999999999
0029029070999991902050506004+64333+023450FM-12+000599999V0200201N008219999999N0000001N9-00111+99999101261ADDGF104991999999999999999999
0029029070999991902050513004+64333+023450FM-12+000599999V0200201N006219999999N0000001N9+00111+99999101381ADDGF103991999999999999999999
0029029070999991902050520004+64333+023450FM-12+000599999V0200201N006219999999N0000001N9+00061+99999101401ADDGF105991999999999999999999
0029029070999991902050606004+64333+023450FM-12+000599999V0200201N006219999999N0000001N9-00061+99999101661ADDGF108991999999999999999999
0029029070999991902050613004+64333+023450FM-12+000599999V0200201N011819999999N0000001N9-00111+99999101941ADDGF100991999999999999999999
0029029070999991902050620004+64333+023450FM-12+000599999V0200201N008219999999N0000001N9-00441+99999102061ADDGF100991999999999999999999
0029029070999991902050706004+64333+023450FM-12+000599999V0200201N011819999999N0000001N9-00221+99999102061ADDGF108991999999999999999999
0029029070999991902050713004+64333+023450FM-12+000599999V0200201N015919999999N0000001N9+00061+99999101951ADDGF108991999999999999999999
0029029070999991902050720004+64333+023450FM-12+000599999V0200201N020119999999N0000001N9+00001+99999101781ADDGF108991999999999999999999
0029029070999991902050806004+64333+023450FM-12+000599999V0200501N027819999999N0000001N9-00171+99999101621ADDGF108991999999999999999999
0029029070999991902050813004+64333+023450FM-12+000599999V0200501N020119999999N0000001N9+00111+99999101741ADDGF106991999999999999999999
0029029070999991902050820004+64333+023450FM-12+000599999V0200501N013919999999N0000001N9-00111+99999102001ADDGF105991999999999999999999
0029029070999991902050906004+64333+023450FM-12+000599999V0200501N015919999999N0000001N9-00281+99999102421ADDGF101991999999999999999999
0029029070999991902050913004+64333+023450FM-12+000599999V0200201N011819999999N0000001N9-00061+99999102431ADDGF102991999999999999999999
0029029070999991902050920004+64333+023450FM-12+000599999V0203601N006219999999N0000001N9-00061+99999102401ADDGF106991999999999999999999
0029029070999991902051006004+64333+023450FM-12+000599999V0200501N006219999999N0000001N9+00001+99999102241ADDGF104991999999999999999999
0029029070999991902051013004+64333+023450FM-12+000599999V0203601N008219999999N0000001N9+00061+99999101991ADDGF102991999999999999999999
0029029070999991902051020004+64333+023450FM-12+000599999V0200501N004119999999N0000001N9-00061+99999101751ADDGF101991999999999999999999
0029029070999991902051106004+64333+023450FM-12+000599999V0209991C000019999999N0000001N9+00001+99999101471ADDGF100991999999999999999999
0029029070999991902051113004+64333+023450FM-12+000599999V0200201N006219999999N0000001N9+00171+99999101191ADDGF100991999999999999999999
0029029070999991902051120004+64333+023450FM-12+000599999V0209991C000019999999N0000001N9+00001+99999101141ADDGF103991999999999999999999
0029029070999991902051206004+64333+023450FM-12+000599999V0200901N002119999999N0000001N9+00001+99999101061ADDGF104991999999999999999999
0029029070999991902051213004+64333+023450FM-12+000599999V0200201N006219999999N0000001N9+00171+99999101041ADDGF102991999999999999999999
0029029070999991902051220004+64333+023450FM-12+000599999V0200701N004119999999N0000001N9-00171+99999101061ADDGF102991999999999999999999
0029029070999991902051306004+64333+023450FM-12+000599999V0209991C000019999999N0000001N9-00061+99999101231ADDGF100991999999999999999999
0029029070999991902051313004+64333+023450FM-12+000599999V0203601N008219999999N0000001N9+00111+99999101281ADDGF100991999999999999999999
0029029070999991902051320004+64333+023450FM-12+000599999V0203601N006219999999N0000001N9-00061+99999101281ADDGF100991999999999999999999
0029029070999991902051406004+64333+023450FM-12+000599999V0209991C000019999999N0000001N9+00001+99999101501ADDGF103991999999999999999999
0029029070999991902051413004+64333+023450FM-12+000599999V0200501N002119999999N0000001N9+00331+99999101551ADDGF106991999999999999999999
0029029070999991902051420004+64333+023450FM-12+000599999V0200901N002119999999N0000001N9+00001+99999101551ADDGF103991999999999999999999
0029029070999991902051506004+64333+023450FM-12+000599999V0200901N006219999999N0000001N9+00061+99999101481ADDGF106991999999999999999999
0035029070999991902051513004+64333+023450FM-12+000599999V0201401N009819999999N0000001N9+00391+99999101381ADDGF108991999999999999999999MW1621
0035029070999991902051520004+64333+023450FM-12+000599999V0209991C000019999999N0000001N9+00391+99999101381ADDGF108991999999999999999999MW1621
0029029070999991902051606004+64333+023450FM-12+000599999V0200901N004119999999N0000001N9+00281+99999100781ADDGF108991999999999999999999
0029029070999991902051613004+64333+023450FM-12+000599999V0201401N008219999999N0000001N9+00671+99999100631ADDGF108991999999999999999999
0035029070999991902051620004+64333+023450FM-12+000599999V0202301N006219999999N0000001N9+00171+99999101041ADDGF108991999999999999999999MW1621
0035029070999991902051706004+64333+023450FM-12+000599999V0200201N004119999999N0000001N9+00111+99999100751ADDGF108991999999999999999999MW1621
0029029070999991902051713004+64333+023450FM-12+000599999V0201401N009819999999N0000001N9+00721+99999100321ADDGF106991999999999999999999
0029029070999991902051720004+64333+023450FM-12+000599999V0209991C000019999999N0000001N9+00281+99999100641ADDGF108991999999999999999999
0029029070999991902051806004+64333+023450FM-12+000599999V0200901N006219999999N0000001N9+00501+99999100901ADDGF103991999999999999999999
0029029070999991902051813004+64333+023450FM-12+000599999V0200901N004119999999N0000001N9+00721+99999100861ADDGF105991999999999999999999
0029029070999991902051820004+64333+023450FM-12+000599999V0200901N008219999999N0000001N9+00441+99999100921ADDGF103991999999999999999999
0029029070999991902051906004+64333+023450FM-12+000599999V0200901N006219999999N0000001N9+00441+99999101111ADDGF100991999999999999999999
0029029070999991902051913004+64333+023450FM-12+000599999V0200501N008219999999N0000001N9+00331+99999100991ADDGF100991999999999999999999
0029029070999991902051920004+64333+023450FM-12+000599999V0200501N004119999999N0000001N9+00281+99999101001ADDGF100991999999999999999999
0029029070999991902052006004+64333+023450FM-12+000599999V0200501N006219999999N0000001N9+00171+99999101061ADDGF100991999999999999999999
0029029070999991902052013004+64333+023450FM-12+000599999V0203401N002119999999N0000001N9+00331+99999100991ADDGF100991999999999999999999
0029029070999991902052020004+64333+023450FM-12+000599999V0209991C000019999999N0000001N9+00111+99999101021ADDGF100991999999999999999999
0029029070999991902052106004+64333+023450FM-12+000599999V0202301N006219999999N0000001N9+00221+99999100871ADDGF100991999999999999999999
0029029070999991902052113004+64333+023450FM-12+000599999V0202301N006219999999N0000001N9+00441+99999101071ADDGF100991999999999999999999
0029029070999991902052120004+64333+023450FM-12+000599999V0203601N008219999999N0000001N9+00221+99999101111ADDGF103991999999999999999999
0029029070999991902052206004+64333+023450FM-12+000599999V0209991C000019999999N0000001N9+00061+99999102081ADDGF100991999999999999999999
0029029070999991902052213004+64333+023450FM-12+000599999V0203201N006219999999N0000001N9+00331+99999102421ADDGF100991999999999999999999
0029029070999991902052220004+64333+023450FM-12+000599999V0209991C000019999999N0000001N9+00061+99999102471ADDGF100991999999999999999999
0029029070999991902052306004+64333+023450FM-12+000599999V0209991C000019999999N0000001N9-00061+99999102601ADDGF100991999999999999999999
0029029070999991902052313004+64333+023450FM-12+000599999V0203601N004119999999N0000001N9+00331+99999102271ADDGF100991999999999999999999
0029029070999991902052320004+64333+023450FM-12+000599999V0209991C000019999999N0000001N9+00061+99999101681ADDGF100991999999999999999999
0029029070999991902052406004+64333+023450FM-12+000599999V0202301N006219999999N0000001N9+00221+99999100741ADDGF106991999999999999999999
0035029070999991902052413004+64333+023450FM-12+000599999V0202301N009819999999N0000001N9+00331+99999100351ADDGF108991999999999999999999MW1621
0029029070999991902052420004+64333+023450FM-12+000599999V0209991C000019999999N0000001N9+00221+99999100361ADDGF108991999999999999999999
0029029070999991902052506004+64333+023450FM-12+000599999V0209991C000019999999N0000001N9+00171+99999101341ADDGF100991999999999999999999
0029029070999991902052513004+64333+023450FM-12+000599999V0209991C000019999999N0000001N9+00331+99999101241ADDGF103991999999999999999999
0029029070999991902052520004+64333+023450FM-12+000599999V0209991C000019999999N0000001N9+00501+99999100801ADDGF108991999999999999999999
0035029070999991902052606004+64333+023450FM-12+000599999V0202301N009819999999N0000001N9+00221+99999099581ADDGF108991999999999999999999MW1621
0029029070999991902052613004+64333+023450FM-12+000599999V0202301N009819999999N0000001N9+00281+99999099621ADDGF108991999999999999999999
0029029070999991902052620004+64333+023450FM-12+000599999V0202301N009819999999N0000001N9+00171+99999099241ADDGF108991999999999999999999
0029029070999991902052706004+64333+023450FM-12+000599999V0202501N011819999999N0000001N9+00221+99999099471ADDGF102991999999999999999999
0029029070999991902052713004+64333+023450FM-12+000599999V0202301N013919999999N0000001N9+00331+99999099791ADDGF102991999999999999999999
0029029070999991902052720004+64333+023450FM-12+000599999V0202301N006219999999N0000001N9+00221+99999099831ADDGF105991999999999999999999
0029029070999991902052806004+64333+023450FM-12+000599999V0209991C000019999999N0000001N9+00441+99999099911ADDGF102991999999999999999999
0029029070999991902052813004+64333+023450FM-12+000599999V0209991C000019999999N0000001N9+00441+99999099901ADDGF104991999999999999999999
0035029070999991902052820004+64333+023450FM-12+000599999V0209991C000019999999N0000001N9+00441+99999099911ADDGF108991999999999999999999MW1621
0029029070999991902052906004+64333+023450FM-12+000599999V0201801N011819999999N0000001N9+00611+99999999999ADDGF108991999999999999999999
0029029070999991902052913004+64333+023450FM-12+000599999V0202301N015919999999N0000001N9+00611+99999100121ADDGF103991999999999999999999
0029029070999991902052920004+64333+023450FM-12+000599999V0202001N009819999999N0000001N9+00501+99999100421ADDGF102991999999999999999999
0029029070999991902053006004+64333+023450FM-12+000599999V0202301N006219999999N0000001N9+00221+99999101151ADDGF101991999999999999999999
0029029070999991902053013004+64333+023450FM-12+000599999V0202501N004119999999N0000001N9+00611+99999101911ADDGF100991999999999999999999
0029029070999991902053020004+64333+023450FM-12+000599999V0202701N006219999999N0000001N9+00441+99999102341ADDGF100991999999999999999999
0029029070999991902053106004+64333+023450FM-12+000599999V0202701N004119999999N0000001N9+00281+99999102671ADDGF105991999999999999999999
0029029070999991902053113004+64333+023450FM-12+000599999V0209991C000019999999N0000001N9+00391+99999102461ADDGF108991999999999999999999
0035029070999991902053120004+64333+023450FM-12+000599999V0209991C000019999999N0000001N9+00281+99999102111ADDGF108991999999999999999999MW1601
0029029070999991902060106004+64333+023450FM-12+000599999V0203401N008219999999N0000001N9+00221+99999102201ADDGF100991999999999999999999
0029029070999991902060113004+64333+023450FM-12+000599999V0203201N006219999999N0000001N9+00391+99999102321ADDGF100991999999999999999999
0029029070999991902060120004+64333+023450FM-12+000599999V0203201N006219999999N0000001N9+00171+99999102391ADDGF104991999999999999999999
0029029070999991902060206004+64333+023450FM-12+000599999V0209991C000019999999N0000001N9+00391+99999102701ADDGF100991999999999999999999
0029029070999991902060213004+64333+023450FM-12+000599999V0202301N008219999999N0000001N9+00441+99999102551ADDGF104991999999999999999999
0029029070999991902060220004+64333+023450FM-12+000599999V0202301N013919999999N0000001N9+00281+99999102111ADDGF107991999999999999999999
0029029070999991902060306004+64333+023450FM-12+000599999V0202901N009819999999N0000001N9+00391+99999101741ADDGF100991999999999999999999
0029029070999991902060313004+64333+023450FM-12+000599999V0202701N008219999999N0000001N9+00611+99999101911ADDGF104991999999999999999999
0029029070999991902060320004+64333+023450FM-12+000599999V0209991C000019999999N0000001N9+00331+99999102461ADDGF102991999999999999999999
0029029070999991902060406004+64333+023450FM-12+000599999V0209991C000019999999N0000001N9+00441+99999102501ADDGF106991999999999999999999
0035029070999991902060413004+64333+023450FM-12+000599999V0202001N009819999999N0000001N9+00441+99999101941ADDGF108991999999999999999999MW1621
0029029070999991902060420004+64333+023450FM-12+000599999V0202301N009819999999N0000001N9+00391+99999100821ADDGF108991999999999999999999
0029029070999991902060506004+64333+023450FM-12+000599999V0203401N010819999999N0000001N9+00331+99999100631ADDGF106991999999999999999999
0029029070999991902060513004+64333+023450FM-12+000599999V0203401N011819999999N0000001N9+00331+99999100791ADDGF100991999999999999999999
0029029070999991902060520004+64333+023450FM-12+000599999V0200201N013919999999N0000001N9+00281+99999100861ADDGF108991999999999999999999
0029029070999991902060606004+64333+023450FM-12+000599999V0200201N013919999999N0000001N9+00171+99999100861ADDGF104991999999999999999999
0029029070999991902060613004+64333+023450FM-12+000599999V0200201N009819999999N0000001N9+00281+99999100781ADDGF105991999999999999999999
0029029070999991902060620004+64333+023450FM-12+000599999V0203401N005119999999N0000001N9+00171+99999100601ADDGF107991999999999999999999
0029029070999991902060706004+64333+023450FM-12+000599999V0203601N006219999999N0000001N9+00331+99999100621ADDGF106991999999999999999999
0029029070999991902060713004+64333+023450FM-12+000599999V0202701N004119999999N0000001N9+00501+99999100621ADDGF103991999999999999999999
0029029070999991902060720004+64333+023450FM-12+000599999V0209991C000019999999N0000001N9+00331+99999100511ADDGF104991999999999999999999
0029029070999991902060806004+64333+023450FM-12+000599999V0202001N004119999999N0000001N9+00441+99999100321ADDGF104991999999999999999999
0029029070999991902060813004+64333+023450FM-12+000599999V0209991C000019999999N0000001N9+00501+99999100321ADDGF104991999999999999999999
0029029070999991902060820004+64333+023450FM-12+000599999V0209991C000019999999N0000001N9+00441+99999100401ADDGF108991999999999999999999
0029029070999991902060906004+64333+023450FM-12+000599999V0200501N008219999999N0000001N9+00561+99999100471ADDGF108991999999999999999999
0029029070999991902060913004+64333+023450FM-12+000599999V0200201N011819999999N0000001N9+00561+99999100401ADDGF108991999999999999999999
0035029070999991902060920004+64333+023450FM-12+000599999V0200701N011819999999N0000001N9+00611+99999100021ADDGF108991999999999999999999MW1601
0035029070999991902061006004+64333+023450FM-12+000599999V0200501N015919999999N0000001N9+00331+99999099381ADDGF108991999999999999999999MW1621
0029029070999991902061013004+64333+023450FM-12+000599999V0200201N011819999999N0000001N9+00281+99999099441ADDGF108991999999999999999999
0035029070999991902061020004+64333+023450FM-12+000599999V0203201N013919999999N0000001N9+00221+99999099911ADDGF108991999999999999999999MW1621
0029029070999991902061106004+64333+023450FM-12+000599999V0202701N004119999999N0000001N9+00331+99999100541ADDGF100991999999999999999999
0029029070999991902061113004+64333+023450FM-12+000599999V0200501N004119999999N0000001N9+00441+99999100521ADDGF104991999999999999999999
0029029070999991902061120004+64333+023450FM-12+000599999V0203601N008219999999N0000001N9+00331+99999100181ADDGF105991999999999999999999
0029029070999991902061206004+64333+023450FM-12+000599999V0202501N006219999999N0000001N9+00441+99999100521ADDGF104991999999999999999999
0029029070999991902061213004+64333+023450FM-12+000599999V0202301N011819999999N0000001N9+00501+99999100921ADDGF102991999999999999999999
0029029070999991902061220004+64333+023450FM-12+000599999V0202301N009819999999N0000001N9+00281+99999101261ADDGF102991999999999999999999
0029029070999991902061306004+64333+023450FM-12+000599999V0201801N006219999999N0000001N9+00671+99999101421ADDGF103991999999999999999999
0029029070999991902061313004+64333+023450FM-12+000599999V0209991C000019999999N0000001N9+00891+99999101551ADDGF102991999999999999999999
0029029070999991902061320004+64333+023450FM-12+000599999V0201801N002119999999N0000001N9+00611+99999101671ADDGF100991999999999999999999
0029029070999991902061406004+64333+023450FM-12+000599999V0203601N004119999999N0000001N9+00611+99999101741ADDGF102991999999999999999999
0029029070999991902061413004+64333+023450FM-12+000599999V0203601N009819999999N0000001N9+00671+99999101671ADDGF100991999999999999999999
0029029070999991902061420004+64333+023450FM-12+000599999V0200201N011819999999N0000001N9+00671+99999101421ADDGF105991999999999999999999
0029029070999991902061506004+64333+023450FM-12+000599999V0200501N011819999999N0000001N9+00611+99999100761ADDGF108991999999999999999999
0035029070999991902061513004+64333+023450FM-12+000599999V0200501N011819999999N0000001N9+00671+99999100551ADDGF108991999999999999999999MW1621
0035029070999991902061520004+64333+023450FM-12+000599999V0200201N020119999999N0000001N9+00561+99999100321ADDGF108991999999999999999999MW1621
0029029070999991902061606004+64333+023450FM-12+000599999V0200201N015919999999N0000001N9+00611+99999100551ADDGF108991999999999999999999
0029029070999991902061613004+64333+023450FM-12+000599999V0200201N015919999999N0000001N9+00611+99999100621ADDGF106991999999999999999999
0029029070999991902061620004+64333+023450FM-12+000599999V0200201N015919999999N0000001N9+00501+99999100821ADDGF103991999999999999999999
0029029070999991902061706004+64333+023450FM-12+000599999V0200201N020119999999N0000001N9+00391+99999100741ADDGF108991999999999999999999
0029029070999991902061713004+64333+023450FM-12+000599999V0203601N020119999999N0000001N9+00501+99999100821ADDGF108991999999999999999999
0035029070999991902061720004+64333+023450FM-12+000599999V0203601N015919999999N0000001N9+00441+99999100951ADDGF108991999999999999999999MW1621
0029029070999991902061806004+64333+023450FM-12+000599999V0203201N006219999999N0000001N9+00561+99999101241ADDGF102991999999999999999999
0029029070999991902061813004+64333+023450FM-12+000599999V0209991C000019999999N0000001N9+01001+99999101341ADDGF102991999999999999999999
0029029070999991902061820004+64333+023450FM-12+000599999V0201801N004119999999N0000001N9+00611+99999101191ADDGF105991999999999999999999
0029029070999991902061906004+64333+023450FM-12+000599999V0202001N008219999999N0000001N9+00891+99999101621ADDGF105991999999999999999999
0029029070999991902061913004+64333+023450FM-12+000599999V0202501N009819999999N0000001N9+01001+99999101461ADDGF103991999999999999999999
0029029070999991902061920004+64333+023450FM-12+000599999V0202501N002119999999N0000001N9+00561+99999101671ADDGF105991999999999999999999
0029029070999991902062006004+64333+023450FM-12+000599999V0203601N004119999999N0000001N9+00611+99999101871ADDGF104991999999999999999999
0029029070999991902062013004+64333+023450FM-12+000599999V0203601N009819999999N0000001N9+00561+99999101761ADDGF105991999999999999999999
0029029070999991902062020004+64333+023450FM-12+000599999V0203601N008219999999N0000001N9+00501+99999101751ADDGF103991999999999999999999
0029029070999991902062106004+64333+023450FM-12+000599999V0203601N008219999999N0000001N9+00671+99999101861ADDGF100991999999999999999999
0029029070999991902062113004+64333+023450FM-12+000599999V0203601N011819999999N0000001N9+00831+99999101831ADDGF102991999999999999999999
0029029070999991902062120004+64333+023450FM-12+000599999V0203601N013919999999N0000001N9+00781+99999101831ADDGF101991999999999999999999
0029029070999991902062206004+64333+023450FM-12+000599999V0203601N020119999999N0000001N9+00611+99999101881ADDGF104991999999999999999999
0029029070999991902062213004+64333+023450FM-12+000599999V0203601N015919999999N0000001N9+00831+99999101871ADDGF103991999999999999999999
0029029070999991902062220004+64333+023450FM-12+000599999V0203601N011819999999N0000001N9+00781+99999101831ADDGF101991999999999999999999
0029029070999991902062306004+64333+023450FM-12+000599999V0200201N011819999999N0000001N9+00721+99999102141ADDGF102991999999999999999999
0029029070999991902062313004+64333+023450FM-12+000599999V0200201N013919999999N0000001N9+00781+99999101991ADDGF104991999999999999999999
0029029070999991902062320004+64333+023450FM-12+000599999V0200201N009819999999N0000001N9+00671+99999101991ADDGF102991999999999999999999
0029029070999991902062406004+64333+023450FM-12+000599999V0200201N009819999999N0000001N9+00721+99999102261ADDGF100991999999999999999999
0029029070999991902062413004+64333+023450FM-12+000599999V0200201N008219999999N0000001N9+00721+99999102261ADDGF102991999999999999999999
0029029070999991902062420004+64333+023450FM-12+000599999V0200201N004119999999N0000001N9+00611+99999102261ADDGF104991999999999999999999
0029029070999991902062506004+64333+023450FM-12+000599999V0209991C000019999999N0000001N9+00721+99999102361ADDGF101991999999999999999999
0029029070999991902062513004+64333+023450FM-12+000599999V0203401N006219999999N0000001N9+00831+99999102361ADDGF100991999999999999999999
0029029070999991902062520004+64333+023450FM-12+000599999V0200201N008219999999N0000001N9+00781+99999102361ADDGF101991999999999999999999
0029029070999991902062606004+64333+023450FM-12+000599999V0209991C000019999999N0000001N9+00781+99999102621ADDGF101991999999999999999999
0029029070999991902062613004+64333+023450FM-12+000599999V0209991C000019999999N0000001N9+01111+99999102321ADDGF108991999999999999999999
0029029070999991902062620004+64333+023450FM-12+000599999V0209991C000019999999N0000001N9+00941+99999102151ADDGF102991999999999999999999
0029029070999991902062706004+64333+023450FM-12+000599999V0202301N009819999999N0000001N9+00781+99999101991ADDGF108991999999999999999999
0029029070999991902062713004+64333+023450FM-12+000599999V0202301N006219999999N0000001N9+00941+99999101991ADDGF106991999999999999999999
0029029070999991902062720004+64333+023450FM-12+000599999V0202301N006219999999N0000001N9+00721+99999101721ADDGF102991999999999999999999
0029029070999991902062806004+64333+023450FM-12+000599999V0202301N009819999999N0000001N9+00831+99999101161ADDGF108991999999999999999999
0029029070999991902062813004+64333+023450FM-12+000599999V0202301N009819999999N0000001N9+00781+99999100361ADDGF108991999999999999999999
0029029070999991902062820004+64333+023450FM-12+000599999V0202701N008219999999N0000001N9+00891+99999100181ADDGF108991999999999999999999
0029029070999991902062906004+64333+023450FM-12+000599999V0203201N011819999999N0000001N9+00831+99999100621ADDGF101991999999999999999999
0029029070999991902062913004+64333+023450FM-12+000599999V0203201N011819999999N0000001N9+01001+99999100751ADDGF102991999999999999999999
0029029070999991902062920004+64333+023450FM-12+000599999V0203201N009819999999N0000001N9+00781+99999100831ADDGF105991999999999999999999
0029029070999991902063006004+64333+023450FM-12+000599999V0203201N009819999999N0000001N9+00721+99999101191ADDGF106991999999999999999999
0029029070999991902063013004+64333+023450FM-12+000599999V0202901N008219999999N0000001N9+00891+99999101241ADDGF101991999999999999999999
0029029070999991902063020004+64333+023450FM-12+000599999V0202501N008219999999N0000001N9+00781+99999101101ADDGF105991999999999999999999
0029029070999991902070106004+64333+023450FM-12+000599999V0201401N009819999999N0000001N9+00831+99999099981ADDGF108991999999999999999999
0029029070999991902070113004+64333+023450FM-12+000599999V0203401N011819999999N0000001N9+00891+99999099711ADDGF108991999999999999999999
0029029070999991902070120004+64333+023450FM-12+000599999V0202501N009819999999N0000001N9+00671+99999100061ADDGF108991999999999999999999
0029029070999991902070206004+64333+023450FM-12+000599999V0202901N002119999999N0000001N9+00831+99999099981ADDGF101991999999999999999999
0029029070999991902070213004+64333+023450FM-12+000599999V0203201N002119999999N0000001N9+00941+99999100141ADDGF101991999999999999999999
0029029070999991902070220004+64333+023450FM-12+000599999V0203201N009819999999N0000001N9+00671+99999100431ADDGF102991999999999999999999
0029029070999991902070306004+64333+023450FM-12+000599999V0202901N009819999999N0000001N9+00721+99999100701ADDGF108991999999999999999999
0029029070999991902070313004+64333+023450FM-12+000599999V0202501N009819999999N0000001N9+00891+99999100921ADDGF102991999999999999999999
0029029070999991902070320004+64333+023450FM-12+000599999V0203201N008219999999N0000001N9+00941+99999100981ADDGF104991999999999999999999
0029029070999991902070406004+64333+023450FM-12+000599999V0202901N008219999999N0000001N9+00891+99999101271ADDGF108991999999999999999999
0029029070999991902070413004+64333+023450FM-12+000599999V0202301N011819999999N0000001N9+01001+99999101221ADDGF101991999999999999999999
0029029070999991902070420004+64333+023450FM-12+000599999V0201801N002119999999N0000001N9+00941+99999100831ADDGF102991999999999999999999
0029029070999991902070506004+64333+023450FM-12+000599999V0201801N008219999999N0000001N9+01281+99999100421ADDGF105991999999999999999999
0029029070999991902070513004+64333+023450FM-12+000599999V0203601N009819999999N0000001N9+01001+99999100261ADDGF108991999999999999999999
0035029070999991902070520004+64333+023450FM-12+000599999V0209991C000019999999N0000001N9+00941+99999100281ADDGF108991999999999999999999MW1621
0029029070999991902070606004+64333+023450FM-12+000599999V0203401N004119999999N0000001N9+01001+99999100841ADDGF108991999999999999999999
0029029070999991902070613004+64333+023450FM-12+000599999V0203601N008219999999N0000001N9+01001+99999100831ADDGF108991999999999999999999
0029029070999991902070620004+64333+023450FM-12+000599999V0203601N011819999999N0000001N9+00831+99999100841ADDGF108991999999999999999999
0029029070999991902070706004+64333+023450FM-12+000599999V0203601N011819999999N0000001N9+00781+99999100781ADDGF108991999999999999999999
0029029070999991902070713004+64333+023450FM-12+000599999V0203601N011819999999N0000001N9+00891+99999100751ADDGF102991999999999999999999
0029029070999991902070720004+64333+023450FM-12+000599999V0203601N011819999999N0000001N9+00781+99999100631ADDGF105991999999999999999999
0035029070999991902070806004+64333+023450FM-12+000599999V0200201N006219999999N0000001N9+00941+99999100381ADDGF108991999999999999999999MW1601
0035029070999991902070813004+64333+023450FM-12+000599999V0200201N013919999999N0000001N9+00891+99999100551ADDGF108991999999999999999999MW1601
0029029070999991902070820004+64333+023450FM-12+000599999V0200201N011819999999N0000001N9+00891+99999100621ADDGF106991999999999999999999
0029029070999991902070906004+64333+023450FM-12+000599999V0200201N009819999999N0000001N9+00891+99999100641ADDGF104991999999999999999999
0029029070999991902070913004+64333+023450FM-12+000599999V0200201N009819999999N0000001N9+00941+99999100711ADDGF104991999999999999999999
0029029070999991902070920004+64333+023450FM-12+000599999V0200201N009819999999N0000001N9+00891+99999100711ADDGF105991999999999999999999
0029029070999991902071006004+64333+023450FM-12+000599999V0200201N009819999999N0000001N9+00941+99999100751ADDGF105991999999999999999999
0029029070999991902071013004+64333+023450FM-12+000599999V0200201N009819999999N0000001N9+00891+99999100681ADDGF108991999999999999999999
0029029070999991902071020004+64333+023450FM-12+000599999V0200501N009819999999N0000001N9+00781+99999100561ADDGF108991999999999999999999
0029029070999991902071106004+64333+023450FM-12+000599999V0200201N009819999999N0000001N9+00831+99999100281ADDGF104991999999999999999999
0029029070999991902071113004+64333+023450FM-12+000599999V0200201N008219999999N0000001N9+00941+99999100301ADDGF104991999999999999999999
0029029070999991902071120004+64333+023450FM-12+000599999V0200501N006219999999N0000001N9+00941+99999100321ADDGF101991999999999999999999
0029029070999991902071206004+64333+023450FM-12+000599999V0200201N011819999999N0000001N9+00941+99999100231ADDGF106991999999999999999999
0035029070999991902071213004+64333+023450FM-12+000599999V0200201N013919999999N0000001N9+00941+99999100071ADDGF108991999999999999999999MW1621
0035029070999991902071220004+64333+023450FM-12+000599999V0200201N013919999999N0000001N9+00941+99999099711ADDGF108991999999999999999999MW1621
0029029070999991902071306004+64333+023450FM-12+000599999V0203201N002119999999N0000001N9+00941+99999999999ADDGF108991999999999999999999
0029029070999991902071313004+64333+023450FM-12+000599999V0202301N004119999999N0000001N9+01061+99999100381ADDGF108991999999999999999999
0029029070999991902071320004+64333+023450FM-12+000599999V0202301N009819999999N0000001N9+00891+99999100751ADDGF102991999999999999999999
0029029070999991902071406004+64333+023450FM-12+000599999V0201601N004119999999N0000001N9+00891+99999100881ADDGF106991999999999999999999
0029029070999991902071413004+64333+023450FM-12+000599999V0203601N006219999999N0000001N9+01001+99999100941ADDGF108991999999999999999999
0035029070999991902071420004+64333+023450FM-12+000599999V0202901N006219999999N0000001N9+00941+99999100991ADDGF108991999999999999999999MW1621
0029029070999991902071506004+64333+023450FM-12+000599999V0202701N002119999999N0000001N9+00891+99999101391ADDGF100991999999999999999999
0029029070999991902071513004+64333+023450FM-12+000599999V0209991C000019999999N0000001N9+01171+99999101541ADDGF100991999999999999999999
0029029070999991902071520004+64333+023450FM-12+000599999V0209991C000019999999N0000001N9+01221+99999101541ADDGF100991999999999999999999
0029029070999991902071606004+64333+023450FM-12+000599999V0203601N008219999999N0000001N9+01171+99999101141ADDGF104991999999999999999999
0029029070999991902071613004+64333+023450FM-12+000599999V0203601N009819999999N0000001N9+01281+99999101031ADDGF104991999999999999999999
0035029070999991902071620004+64333+023450FM-12+000599999V0209991C000019999999N0000001N9+01111+99999100751ADDGF106991999999999999999999MW1621
0029029070999991902071706004+64333+023450FM-12+000599999V0203601N009819999999N0000001N9+01111+99999100741ADDGF108991999999999999999999
0029029070999991902071713004+64333+023450FM-12+000599999V0203601N009819999999N0000001N9+01111+99999100791ADDGF108991999999999999999999
0029029070999991902071720004+64333+023450FM-12+000599999V0202901N004119999999N0000001N9+01061+99999100791ADDGF108991999999999999999999
0029029070999991902071806004+64333+023450FM-12+000599999V0202301N004119999999N0000001N9+01221+99999100741ADDGF108991999999999999999999
0029029070999991902071813004+64333+023450FM-12+000599999V0209991C000019999999N0000001N9+01501+99999100801ADDGF102991999999999999999999
0029029070999991902071820004+64333+023450FM-12+000599999V0203601N004119999999N0000001N9+01221+99999100841ADDGF102991999999999999999999
0029029070999991902071906004+64333+023450FM-12+000599999V0203601N011819999999N0000001N9+01111+99999100641ADDGF108991999999999999999999
0029029070999991902071913004+64333+023450FM-12+000599999V0203601N009819999999N0000001N9+01221+99999100641ADDGF108991999999999999999999
0035029070999991902071920004+64333+023450FM-12+000599999V0209991C000019999999N0000001N9+01171+99999100541ADDGF108991999999999999999999MW1641
0035029070999991902072006004+64333+023450FM-12+000599999V0203601N015919999999N0000001N9+01221+99999099761ADDGF108991999999999999999999MW1621
0035029070999991902072013004+64333+023450FM-12+000599999V0203601N015919999999N0000001N9+00831+99999099801ADDGF108991999999999999999999MW1621
0035029070999991902072020004+64333+023450FM-12+000599999V0209991C000019999999N0000001N9+00831+99999099981ADDGF108991999999999999999999MW1621
0029029070999991902072106004+64333+023450FM-12+000599999V0201801N006219999999N0000001N9+00891+99999100311ADDGF108991999999999999999999
0029029070999991902072113004+64333+023450FM-12+000599999V0209991C000019999999N0000001N9+01111+99999100431ADDGF104991999999999999999999
0029029070999991902072120004+64333+023450FM-12+000599999V0202301N009819999999N0000001N9+00781+99999100551ADDGF108991999999999999999999
0029029070999991902072206004+64333+023450FM-12+000599999V0202001N009819999999N0000001N9+00831+99999100781ADDGF104991999999999999999999
0029029070999991902072213004+64333+023450FM-12+000599999V0202301N008219999999N0000001N9+01001+99999100841ADDGF103991999999999999999999
0029029070999991902072220004+64333+023450FM-12+000599999V0202301N006219999999N0000001N9+00831+99999100881ADDGF102991999999999999999999
0029029070999991902072306004+64333+023450FM-12+000599999V0209991C000019999999N0000001N9+00831+99999100881ADDGF101991999999999999999999
0029029070999991902072313004+64333+023450FM-12+000599999V0209991C000019999999N0000001N9+01331+99999100961ADDGF102991999999999999999999
0029029070999991902072320004+64333+023450FM-12+000599999V0209991C000019999999N0000001N9+00781+99999100871ADDGF103991999999999999999999
0029029070999991902072406004+64333+023450FM-12+000599999V0209991C000019999999N0000001N9+01061+99999101201ADDGF103991999999999999999999
0029029070999991902072413004+64333+023450FM-12+000599999V0209991C000019999999N0000001N9+01501+99999101121ADDGF100991999999999999999999
0035029070999991902072420004+64333+023450FM-12+000599999V0200901N002119999999N0000001N9+01221+99999101401ADDGF106991999999999999999999MW1621
0029029070999991902072506004+64333+023450FM-12+000599999V0209991C000019999999N0000001N9+01221+99999101261ADDGF102991999999999999999999
0029029070999991902072513004+64333+023450FM-12+000599999V0209991C000019999999N0000001N9+01561+99999101221ADDGF104991999999999999999999
0029029070999991902072520004+64333+023450FM-12+000599999V0202701N004119999999N0000001N9+01171+99999101201ADDGF108991999999999999999999
0029029070999991902072606004+64333+023450FM-12+000599999V0202301N004119999999N0000001N9+01111+99999101041ADDGF108991999999999999999999
0029029070999991902072613004+64333+023450FM-12+000599999V0201801N002119999999N0000001N9+01441+99999100921ADDGF105991999999999999999999
0029029070999991902072620004+64333+023450FM-12+000599999V0202301N011819999999N0000001N9+01001+99999100831ADDGF108991999999999999999999
0029029070999991902072706004+64333+023450FM-12+000599999V0202501N008219999999N0000001N9+00941+99999101031ADDGF101991999999999999999999
0029029070999991902072713004+64333+023450FM-12+000599999V0200501N004119999999N0000001N9+01281+99999100881ADDGF101991999999999999999999
0029029070999991902072720004+64333+023450FM-12+000599999V0200701N006219999999N0000001N9+01111+99999100541ADDGF101991999999999999999999
0029029070999991902072806004+64333+023450FM-12+000599999V0200901N011819999999N0000001N9+01061+99999099671ADDGF108991999999999999999999
0029029070999991902072813004+64333+023450FM-12+000599999V0200701N002119999999N0000001N9+01331+99999099601ADDGF105991999999999999999999
0029029070999991902072820004+64333+023450FM-12+000599999V0202301N002119999999N0000001N9+01001+99999099671ADDGF108991999999999999999999
0029029070999991902072906004+64333+023450FM-12+000599999V0202301N009819999999N0000001N9+01001+99999099681ADDGF108991999999999999999999
0029029070999991902072913004+64333+023450FM-12+000599999V0209991C000019999999N0000001N9+01171+99999099941ADDGF108991999999999999999999
0029029070999991902072920004+64333+023450FM-12+000599999V0209991C000019999999N0000001N9+01001+99999099951ADDGF108991999999999999999999
0029029070999991902073006004+64333+023450FM-12+000599999V0200701N009819999999N0000001N9+01061+99999100471ADDGF108991999999999999999999
0029029070999991902073013004+64333+023450FM-12+000599999V0200501N009819999999N0000001N9+01111+99999100481ADDGF106991999999999999999999
0029029070999991902073020004+64333+023450FM-12+000599999V0209991C000019999999N0000001N9+01001+99999100661ADDGF105991999999999999999999
0035029070999991902073106004+64333+023450FM-12+000599999V0200501N002119999999N0000001N9+01001+99999100661ADDGF108991999999999999999999MW1621
0029029070999991902073113004+64333+023450FM-12+000599999V0203601N002119999999N0000001N9+01221+99999100681ADDGF108991999999999999999999
0029029070999991902073120004+64333+023450FM-12+000599999V0202701N006219999999N0000001N9+01061+99999100721ADDGF106991999999999999999999
0029029070999991902080106004+64333+023450FM-12+000599999V0202901N006219999999N0000001N9+01171+99999100921ADDGF105991999999999999999999
0029029070999991902080113004+64333+023450FM-12+000599999V0202901N004119999999N0000001N9+01281+99999101061ADDGF100991999999999999999999
0029029070999991902080120004+64333+023450FM-12+000599999V0202701N002119999999N0000001N9+01221+99999101031ADDGF102991999999999999999999
0029029070999991902080206004+64333+023450FM-12+000599999V0203601N008219999999N0000001N9+01171+99999101041ADDGF104991999999999999999999
0029029070999991902080213004+64333+023450FM-12+000599999V0203201N002119999999N0000001N9+01441+99999101141ADDGF102991999999999999999999
0029029070999991902080220004+64333+023450FM-12+000599999V0202701N002119999999N0000001N9+01171+99999101191ADDGF101991999999999999999999
0029029070999991902080306004+64333+023450FM-12+000599999V0209991C000019999999N0000001N9+01281+99999101281ADDGF102991999999999999999999
0029029070999991902080313004+64333+023450FM-12+000599999V0203601N006219999999N0000001N9+01501+99999101341ADDGF100991999999999999999999
0029029070999991902080320004+64333+023450FM-12+000599999V0209991C000019999999N0000001N9+01171+99999101401ADDGF102991999999999999999999
0029029070999991902080406004+64333+023450FM-12+000599999V0209991C000019999999N0000001N9+01281+99999101191ADDGF104991999999999999999999
0029029070999991902080413004+64333+023450FM-12+000599999V0200201N006219999999N0000001N9+01441+99999101121ADDGF108991999999999999999999
0029029070999991902080420004+64333+023450FM-12+000599999V0200501N011819999999N0000001N9+01331+99999101031ADDGF108991999999999999999999
0035029070999991902080506004+64333+023450FM-12+000599999V0200701N011819999999N0000001N9+01061+99999100791ADDGF108991999999999999999999MW1621
0035029070999991902080513004+64333+023450FM-12+000599999V0200701N008219999999N0000001N9+01331+99999100841ADDGF108991999999999999999999MW1621
0029029070999991902080520004+64333+023450FM-12+000599999V0200901N008219999999N0000001N9+01221+99999100841ADDGF108991999999999999999999
0029029070999991902080606004+64333+023450FM-12+000599999V0200501N006219999999N0000001N9+01171+99999100951ADDGF103991999999999999999999
0029029070999991902080613004+64333+023450FM-12+000599999V0200501N006219999999N0000001N9+01281+99999100941ADDGF104991999999999999999999
0029029070999991902080620004+64333+023450FM-12+000599999V0200901N009819999999N0000001N9+01221+99999100841ADDGF108991999999999999999999
0029029070999991902080706004+64333+023450FM-12+000599999V0200701N004119999999N0000001N9+01221+99999100861ADDGF104991999999999999999999
0029029070999991902080713004+64333+023450FM-12+000599999V0200201N006219999999N0000001N9+01391+99999100821ADDGF104991999999999999999999
0029029070999991902080720004+64333+023450FM-12+000599999V0200501N004119999999N0000001N9+01111+99999100751ADDGF108991999999999999999999
0029029070999991902080806004+64333+023450FM-12+000599999V0202301N004119999999N0000001N9+01221+99999100841ADDGF108991999999999999999999
0029029070999991902080813004+64333+023450FM-12+000599999V0202301N004119999999N0000001N9+01441+99999100841ADDGF108991999999999999999999
0029029070999991902080820004+64333+023450FM-12+000599999V0209991C000019999999N0000001N9+01221+99999100841ADDGF108991999999999999999999
0029029070999991902080906004+64333+023450FM-12+000599999V0202001N002119999999N0000001N9+01221+99999101041ADDGF103991999999999999999999
0029029070999991902080913004+64333+023450FM-12+000599999V0203601N002119999999N0000001N9+01501+99999101111ADDGF101991999999999999999999
0029029070999991902080920004+64333+023450FM-12+000599999V0203601N006219999999N0000001N9+01281+99999100841ADDGF103991999999999999999999
0035029070999991902081006004+64333+023450FM-12+000599999V0200901N009819999999N0000001N9+01221+99999100321ADDGF108991999999999999999999MW1621
0035029070999991902081013004+64333+023450FM-12+000599999V0200901N011819999999N0000001N9+01221+99999100151ADDGF108991999999999999999999MW1621
0029029070999991902081020004+64333+023450FM-12+000599999V0209991C000019999999N0000001N9+01111+99999100141ADDGF108991999999999999999999
0029029070999991902081106004+64333+023450FM-12+000599999V0202001N011819999999N0000001N9+01061+99999100071ADDGF101991999999999999999999
0029029070999991902081113004+64333+023450FM-12+000599999V0202001N008219999999N0000001N9+01391+99999100201ADDGF102991999999999999999999
0035029070999991902081120004+64333+023450FM-12+000599999V0200901N006219999999N0000001N9+01111+99999100421ADDGF108991999999999999999999MW1621
0029029070999991902081206004+64333+023450FM-12+000599999V0201801N006219999999N0000001N9+01221+99999100681ADDGF106991999999999999999999
0029029070999991902081213004+64333+023450FM-12+000599999V0201101N006219999999N0000001N9+01441+99999100681ADDGF104991999999999999999999
0029029070999991902081220004+64333+023450FM-12+000599999V0201101N006219999999N0000001N9+01221+99999100721ADDGF104991999999999999999999
0029029070999991902081306004+64333+023450FM-12+000599999V0200901N008219999999N0000001N9+01171+99999100781ADDGF106991999999999999999999
0029029070999991902081313004+64333+023450FM-12+000599999V0200501N008219999999N0000001N9+01281+99999100501ADDGF104991999999999999999999
0029029070999991902081320004+64333+023450FM-12+000599999V0200701N006219999999N0000001N9+01171+99999100321ADDGF106991999999999999999999
0029029070999991902081406004+64333+023450FM-12+000599999V0200501N011819999999N0000001N9+01171+99999099921ADDGF108991999999999999999999
0029029070999991902081413004+64333+023450FM-12+000599999V0209991C000019999999N0000001N9+01331+99999099921ADDGF106991999999999999999999
0029029070999991902081420004+64333+023450FM-12+000599999V0209991C000019999999N0000001N9+01001+99999100201ADDGF102991999999999999999999
0029029070999991902081506004+64333+023450FM-12+000599999V0200201N009819999999N0000001N9+01111+99999099941ADDGF108991999999999999999999
0035029070999991902081513004+64333+023450FM-12+000599999V0200201N020119999999N0000001N9+01061+99999099521ADDGF108991999999999999999999MW1621
0029029070999991902081520004+64333+023450FM-12+000599999V0200201N020119999999N0000001N9+01001+99999098801ADDGF108991999999999999999999
0035029070999991902081606004+64333+023450FM-12+000599999V0201401N009819999999N0000001N9+00941+99999098581ADDGF108991999999999999999999MW1621
0035029070999991902081613004+64333+023450FM-12+000599999V0201601N009819999999N0000001N9+01001+99999098591ADDGF108991999999999999999999MW1621
0035029070999991902081620004+64333+023450FM-12+000599999V0201801N011819999999N0000001N9+00891+99999098981ADDGF108991999999999999999999MW1621
0029029070999991902081706004+64333+023450FM-12+000599999V0201801N011819999999N0000001N9+00941+99999099641ADDGF108991999999999999999999
0029029070999991902081713004+64333+023450FM-12+000599999V0202001N011819999999N0000001N9+01001+99999099881ADDGF105991999999999999999999
0035029070999991902081720004+64333+023450FM-12+000599999V0202001N013919999999N0000001N9+00891+99999100181ADDGF108991999999999999999999MW1621
0029029070999991902081806004+64333+023450FM-12+000599999V0202501N008219999999N0000001N9+01001+99999100671ADDGF108991999999999999999999
0029029070999991902081813004+64333+023450FM-12+000599999V0202301N006219999999N0000001N9+01111+99999101121ADDGF103991999999999999999999
0029029070999991902081820004+64333+023450FM-12+000599999V0202001N004119999999N0000001N9+01001+99999101281ADDGF101991999999999999999999
0029029070999991902081906004+64333+023450FM-12+000599999V0201601N008219999999N0000001N9+01001+99999101401ADDGF103991999999999999999999
0029029070999991902081913004+64333+023450FM-12+000599999V0202001N008219999999N0000001N9+01171+99999101261ADDGF103991999999999999999999
0029029070999991902081920004+64333+023450FM-12+000599999V0202001N008219999999N0000001N9+01001+99999101081ADDGF104991999999999999999999
0029029070999991902082006004+64333+023450FM-12+000599999V0200901N009819999999N0000001N9+01111+99999100511ADDGF106991999999999999999999
0035029070999991902082013004+64333+023450FM-12+000599999V0201101N008219999999N0000001N9+01111+99999099801ADDGF108991999999999999999999MW1621
0029029070999991902082020004+64333+023450FM-12+000599999V0201801N006219999999N0000001N9+01171+99999099751ADDGF108991999999999999999999
0029029070999991902082106004+64333+023450FM-12+000599999V0202001N011819999999N0000001N9+01001+99999099841ADDGF105991999999999999999999
0029029070999991902082113004+64333+023450FM-12+000599999V0202301N009819999999N0000001N9+01061+99999100031ADDGF108991999999999999999999
0029029070999991902082120004+64333+023450FM-12+000599999V0201801N008219999999N0000001N9+00891+99999099941ADDGF102991999999999999999999
0029029070999991902082206004+64333+023450FM-12+000599999V0202001N006219999999N0000001N9+00831+99999099881ADDGF108991999999999999999999
0029029070999991902082213004+64333+023450FM-12+000599999V0202501N004119999999N0000001N9+00941+99999099951ADDGF108991999999999999999999
0035029070999991902082220004+64333+023450FM-12+000599999V0202701N008219999999N0000001N9+00941+99999100021ADDGF108991999999999999999999MW1621
0029029070999991902082306004+64333+023450FM-12+000599999V0203201N015919999999N0000001N9+00891+99999101041ADDGF108991999999999999999999
0029029070999991902082313004+64333+023450FM-12+000599999V0202501N009819999999N0000001N9+01001+99999101281ADDGF100991999999999999999999
0029029070999991902082320004+64333+023450FM-12+000599999V0202301N009819999999N0000001N9+00891+99999101501ADDGF100991999999999999999999
0029029070999991902082406004+64333+023450FM-12+000599999V0202001N008219999999N0000001N9+00831+99999101601ADDGF101991999999999999999999
0029029070999991902082413004+64333+023450FM-12+000599999V0209991C000019999999N0000001N9+01441+99999101631ADDGF101991999999999999999999
0029029070999991902082420004+64333+023450FM-12+000599999V0202001N006219999999N0000001N9+01061+99999101541ADDGF104991999999999999999999
0029029070999991902082506004+64333+023450FM-12+000599999V0202001N009819999999N0000001N9+01001+99999101481ADDGF108991999999999999999999
0035029070999991902082513004+64333+023450FM-12+000599999V0202001N011819999999N0000001N9+01001+99999101481ADDGF108991999999999999999999MW1621
0035029070999991902082520004+64333+023450FM-12+000599999V0201801N006219999999N0000001N9+01001+99999101271ADDGF108991999999999999999999MW1621
0029029070999991902082606004+64333+023450FM-12+000599999V0201101N006219999999N0000001N9+01061+99999101021ADDGF108991999999999999999999
0029029070999991902082613004+64333+023450FM-12+000599999V0200701N006219999999N0000001N9+01061+99999100951ADDGF108991999999999999999999
0029029070999991902082620004+64333+023450FM-12+000599999V0209991C000019999999N0000001N9+01061+99999101141ADDGF108991999999999999999999
0029029070999991902082706004+64333+023450FM-12+000599999V0209991C000019999999N0000001N9+01001+99999101671ADDGF106991999999999999999999
0029029070999991902082713004+64333+023450FM-12+000599999V0203601N004119999999N0000001N9+01221+99999102071ADDGF102991999999999999999999
0029029070999991902082720004+64333+023450FM-12+000599999V0203601N002119999999N0000001N9+01001+99999102201ADDGF103991999999999999999999
0029029070999991902082806004+64333+023450FM-12+000599999V0209991C000019999999N0000001N9+01001+99999102341ADDGF101991999999999999999999
0029029070999991902082813004+64333+023450FM-12+000599999V0200201N009819999999N0000001N9+01061+99999102201ADDGF101991999999999999999999
0029029070999991902082820004+64333+023450FM-12+000599999V0200201N009819999999N0000001N9+01001+99999102101ADDGF101991999999999999999999
0029029070999991902082906004+64333+023450FM-12+000599999V0200501N002119999999N0000001N9+00941+99999102041ADDGF104991999999999999999999
0029029070999991902082913004+64333+023450FM-12+000599999V0200501N008219999999N0000001N9+00941+99999101881ADDGF106991999999999999999999
0029029070999991902082920004+64333+023450FM-12+000599999V0200201N009819999999N0000001N9+00941+99999101821ADDGF105991999999999999999999
0029029070999991902083006004+64333+023450FM-12+000599999V0200501N006219999999N0000001N9+01001+99999101941ADDGF106991999999999999999999
0029029070999991902083013004+64333+023450FM-12+000599999V0200201N008219999999N0000001N9+01001+99999101951ADDGF100991999999999999999999
0029029070999991902083020004+64333+023450FM-12+000599999V0200201N008219999999N0000001N9+00941+99999101951ADDGF102991999999999999999999
0029029070999991902083106004+64333+023450FM-12+000599999V0200901N008219999999N0000001N9+00941+99999102031ADDGF101991999999999999999999
0029029070999991902083113004+64333+023450FM-12+000599999V0200901N008219999999N0000001N9+01001+99999101881ADDGF102991999999999999999999
0029029070999991902083120004+64333+023450FM-12+000599999V0200901N008219999999N0000001N9+00941+99999101841ADDGF103991999999999999999999
0029029070999991902090106004+64333+023450FM-12+000599999V0201601N011819999999N0000001N9+00721+99999101781ADDGF106991999999999999999999
0029029070999991902090113004+64333+023450FM-12+000599999V0201601N011819999999N0000001N9+01001+99999101581ADDGF108991999999999999999999
0035029070999991902090120004+64333+023450FM-12+000599999V0201101N009819999999N0000001N9+00781+99999101481ADDGF108991999999999999999999MW1621
0029029070999991902090206004+64333+023450FM-12+000599999V0201101N009819999999N0000001N9+00781+99999101501ADDGF108991999999999999999999
0029029070999991902090213004+64333+023450FM-12+000599999V0200901N008219999999N0000001N9+01001+99999101631ADDGF108991999999999999999999
0029029070999991902090220004+64333+023450FM-12+000599999V0209991C000019999999N0000001N9+00891+99999101831ADDGF108991999999999999999999
0029029070999991902090306004+64333+023450FM-12+000599999V0201801N009819999999N0000001N9+00891+99999101921ADDGF108991999999999999999999
